{
  "_format": "hh-sol-artifact-1",
  "contractName": "SuccessionManager",
  "sourceName": "contracts/SuccessionManager.sol",
  "abi": [
    {
      "inputs": [
        {
          "internalType": "address",
          "name": "_owner",
          "type": "address"
        },
        {
          "internalType": "address[]",
          "name": "_heirs",
          "type": "address[]"
        },
        {
          "internalType": "uint256",
          "name": "_threshold",
          "type": "uint256"
        },
        {
          "internalType": "uint256",
          "name": "_delayPeriod",
          "type": "uint256"
        }
      ],
      "stateMutability": "payable",
      "type": "constructor"
    },
    {
      "inputs": [
        {
          "internalType": "address",
          "name": "owner",
          "type": "address"
        }
      ],
      "name": "OwnableInvalidOwner",
      "type": "error"
    },
    {
      "inputs": [
        {
          "internalType": "address",
          "name": "account",
          "type": "address"
        }
      ],
      "name": "OwnableUnauthorizedAccount",
      "type": "error"
    },
    {
      "inputs": [],
      "name": "ReentrancyGuardReentrantCall",
      "type": "error"
    },
    {
      "anonymous": false,
      "inputs": [
        {
          "indexed": true,
          "internalType": "address",
          "name": "destination",
          "type": "address"
        },
        {
          "indexed": false,
          "internalType": "uint256",
          "name": "timestamp",
          "type": "uint256"
        },
        {
          "indexed": false,
          "internalType": "uint256",
          "name": "delay",
          "type": "uint256"
        },
        {
          "indexed": false,
          "internalType": "uint256",
          "name": "nonce",
          "type": "uint256"
        }
      ],
      "name": "Armed",
      "type": "event"
    },
    {
      "anonymous": false,
      "inputs": [
        {
          "indexed": true,
          "internalType": "address",
          "name": "previousOwner",
          "type": "address"
        },
        {
          "indexed": true,
          "internalType": "address",
          "name": "newOwner",
          "type": "address"
        }
      ],
      "name": "OwnershipTransferred",
      "type": "event"
    },
    {
      "anonymous": false,
      "inputs": [
        {
          "indexed": true,
          "internalType": "address",
          "name": "destination",
          "type": "address"
        },
        {
          "indexed": false,
          "internalType": "uint256",
          "name": "timestamp",
          "type": "uint256"
        }
      ],
      "name": "Transferred",
      "type": "event"
    },
    {
      "inputs": [
        {
          "internalType": "bytes[]",
          "name": "signatures",
          "type": "bytes[]"
        },
        {
          "internalType": "address",
          "name": "destination",
          "type": "address"
        }
      ],
      "name": "arm",
      "outputs": [],
      "stateMutability": "nonpayable",
      "type": "function"
    },
    {
      "inputs": [],
      "name": "armExecutor",
      "outputs": [
        {
          "internalType": "address",
          "name": "",
          "type": "address"
        }
      ],
      "stateMutability": "view",
      "type": "function"
    },
    {
      "inputs": [],
      "name": "armTimestamp",
      "outputs": [
        {
          "internalType": "uint256",
          "name": "",
          "type": "uint256"
        }
      ],
      "stateMutability": "view",
      "type": "function"
    },
    {
      "inputs": [],
      "name": "armedDestination",
      "outputs": [
        {
          "internalType": "address",
          "name": "",
          "type": "address"
        }
      ],
      "stateMutability": "view",
      "type": "function"
    },
    {
      "inputs": [],
      "name": "cancel",
      "outputs": [],
      "stateMutability": "nonpayable",
      "type": "function"
    },
    {
      "inputs": [],
      "name": "delayPeriod",
      "outputs": [
        {
          "internalType": "uint256",
          "name": "",
          "type": "uint256"
        }
      ],
      "stateMutability": "view",
      "type": "function"
    },
    {
      "inputs": [],
      "name": "getHeirs",
      "outputs": [
        {
          "internalType": "address[]",
          "name": "",
          "type": "address[]"
        }
      ],
      "stateMutability": "view",
      "type": "function"
    },
    {
      "inputs": [],
      "name": "getHeirsCount",
      "outputs": [
        {
          "internalType": "uint256",
          "name": "",
          "type": "uint256"
        }
      ],
      "stateMutability": "view",
      "type": "function"
    },
    {
      "inputs": [],
      "name": "getOwner",
      "outputs": [
        {
          "internalType": "address",
          "name": "",
          "type": "address"
        }
      ],
      "stateMutability": "view",
      "type": "function"
    },
    {
      "inputs": [
        {
          "internalType": "uint256",
          "name": "",
          "type": "uint256"
        }
      ],
      "name": "heirs",
      "outputs": [
        {
          "internalType": "address",
          "name": "",
          "type": "address"
        }
      ],
      "stateMutability": "view",
      "type": "function"
    },
    {
      "inputs": [],
      "name": "isArmed",
      "outputs": [
        {
          "internalType": "bool",
          "name": "",
          "type": "bool"
        }
      ],
      "stateMutability": "view",
      "type": "function"
    },
    {
      "inputs": [
        {
          "internalType": "address",
          "name": "addr",
          "type": "address"
        }
      ],
      "name": "isHeir",
      "outputs": [
        {
          "internalType": "bool",
          "name": "",
          "type": "bool"
        }
      ],
      "stateMutability": "view",
      "type": "function"
    },
    {
      "inputs": [],
      "name": "nonce",
      "outputs": [
        {
          "internalType": "uint256",
          "name": "",
          "type": "uint256"
        }
      ],
      "stateMutability": "view",
      "type": "function"
    },
    {
      "inputs": [],
      "name": "owner",
      "outputs": [
        {
          "internalType": "address",
          "name": "",
          "type": "address"
        }
      ],
      "stateMutability": "view",
      "type": "function"
    },
    {
      "inputs": [],
      "name": "renounceOwnership",
      "outputs": [],
      "stateMutability": "nonpayable",
      "type": "function"
    },
    {
      "inputs": [],
      "name": "threshold",
      "outputs": [
        {
          "internalType": "uint256",
          "name": "",
          "type": "uint256"
        }
      ],
      "stateMutability": "view",
      "type": "function"
    },
    {
      "inputs": [
        {
          "internalType": "address payable",
          "name": "to",
          "type": "address"
        },
        {
          "internalType": "uint256",
          "name": "ethAmount",
          "type": "uint256"
        },
        {
          "internalType": "address[]",
          "name": "tokenAddresses",
          "type": "address[]"
        },
        {
          "internalType": "bool",
          "name": "transferAllEth",
          "type": "bool"
        }
      ],
      "name": "transferAssets",
      "outputs": [],
      "stateMutability": "nonpayable",
      "type": "function"
    },
    {
      "inputs": [
        {
          "internalType": "address",
          "name": "newOwner",
          "type": "address"
        }
      ],
      "name": "transferOwnership",
      "outputs": [],
      "stateMutability": "nonpayable",
      "type": "function"
    },
    {
      "inputs": [
        {
          "internalType": "address[]",
          "name": "tokenAddresses",
          "type": "address[]"
        }
      ],
      "name": "triggerTransfer",
      "outputs": [],
      "stateMutability": "nonpayable",
      "type": "function"
    },
    {
      "inputs": [
        {
          "internalType": "address[]",
          "name": "_newHeirs",
          "type": "address[]"
        },
        {
          "internalType": "uint256",
          "name": "_newThreshold",
          "type": "uint256"
        },
        {
          "internalType": "uint256",
          "name": "_delayPeriod",
          "type": "uint256"
        }
      ],
      "name": "updateHeirs",
      "outputs": [],
      "stateMutability": "nonpayable",
      "type": "function"
    },
    {
      "stateMutability": "payable",
      "type": "receive"
    }
  ],
  "bytecode": "0x6080604052604051612fe8380380612fe883398181016040528101906100259190610499565b83600073ffffffffffffffffffffffffffffffffffffffff168173ffffffffffffffffffffffffffffffffffffffff16036100985760006040517f1e4fbdf700000000000000000000000000000000000000000000000000000000815260040161008f919061052b565b60405180910390fd5b6100a78161012d60201b60201c565b50600180819055506000821180156100c0575082518211155b6100ff576040517f08c379a00000000000000000000000000000000000000000000000000000000081526004016100f6906105a3565b60405180910390fd5b82600290805190602001906101159291906101f1565b508160048190555080600581905550505050506105c3565b60008060009054906101000a900473ffffffffffffffffffffffffffffffffffffffff169050816000806101000a81548173ffffffffffffffffffffffffffffffffffffffff021916908373ffffffffffffffffffffffffffffffffffffffff1602179055508173ffffffffffffffffffffffffffffffffffffffff168173ffffffffffffffffffffffffffffffffffffffff167f8be0079c531659141344cd1fd0a4f28419497f9722a3daafe3b4186f6b6457e060405160405180910390a35050565b82805482825590600052602060002090810192821561026a579160200282015b828111156102695782518260006101000a81548173ffffffffffffffffffffffffffffffffffffffff021916908373ffffffffffffffffffffffffffffffffffffffff16021790555091602001919060010190610211565b5b509050610277919061027b565b5090565b5b8082111561029457600081600090555060010161027c565b5090565b6000604051905090565b600080fd5b600080fd5b600073ffffffffffffffffffffffffffffffffffffffff82169050919050565b60006102d7826102ac565b9050919050565b6102e7816102cc565b81146102f257600080fd5b50565b600081519050610304816102de565b92915050565b600080fd5b6000601f19601f8301169050919050565b7f4e487b7100000000000000000000000000000000000000000000000000000000600052604160045260246000fd5b6103588261030f565b810181811067ffffffffffffffff8211171561037757610376610320565b5b80604052505050565b600061038a610298565b9050610396828261034f565b919050565b600067ffffffffffffffff8211156103b6576103b5610320565b5b602082029050602081019050919050565b600080fd5b60006103df6103da8461039b565b610380565b90508083825260208201905060208402830185811115610402576104016103c7565b5b835b8181101561042b578061041788826102f5565b845260208401935050602081019050610404565b5050509392505050565b600082601f83011261044a5761044961030a565b5b815161045a8482602086016103cc565b91505092915050565b6000819050919050565b61047681610463565b811461048157600080fd5b50565b6000815190506104938161046d565b92915050565b600080600080608085870312156104b3576104b26102a2565b5b60006104c1878288016102f5565b945050602085015167ffffffffffffffff8111156104e2576104e16102a7565b5b6104ee87828801610435565b93505060406104ff87828801610484565b925050606061051087828801610484565b91505092959194509250565b610525816102cc565b82525050565b6000602082019050610540600083018461051c565b92915050565b600082825260208201905092915050565b7f496e76616c6964207468726573686f6c64000000000000000000000000000000600082015250565b600061058d601183610546565b915061059882610557565b602082019050919050565b600060208201905081810360008301526105bc81610580565b9050919050565b612a16806105d26000396000f3fe6080604052600436106101235760003560e01c80637a3f9a14116100a0578063c4755ea711610064578063c4755ea7146103be578063d2f3e4d6146103e7578063ea8a1af014610412578063f2fde38b14610429578063f330abb6146104525761012a565b80637a3f9a14146102e7578063893d20e8146103125780638da5cb5b1461033d578063affed0e014610368578063b1c94d94146103935761012a565b806351437bdb116100e757806351437bdb14610214578063568ddfc61461023f578063598f6a161461027c578063701416d0146102a7578063715018a6146102d05761012a565b806303bffa7d1461012f5780631c0795c31461015857806341ac85f61461019557806342cde4e8146101be5780634eae51f4146101e95761012a565b3661012a57005b600080fd5b34801561013b57600080fd5b5061015660048036038101906101519190611a73565b61047d565b005b34801561016457600080fd5b5061017f600480360381019061017a9190611b09565b610962565b60405161018c9190611b45565b60405180910390f35b3480156101a157600080fd5b506101bc60048036038101906101b79190611bb6565b6109a1565b005b3480156101ca57600080fd5b506101d3610c1d565b6040516101e09190611c12565b60405180910390f35b3480156101f557600080fd5b506101fe610c23565b60405161020b9190611ceb565b60405180910390f35b34801561022057600080fd5b50610229610cb1565b6040516102369190611b45565b60405180910390f35b34801561024b57600080fd5b5061026660048036038101906102619190611d0d565b610cd7565b6040516102739190611d55565b60405180910390f35b34801561028857600080fd5b50610291610d7f565b60405161029e9190611c12565b60405180910390f35b3480156102b357600080fd5b506102ce60048036038101906102c99190611d70565b610d8c565b005b3480156102dc57600080fd5b506102e5610e0c565b005b3480156102f357600080fd5b506102fc610e20565b6040516103099190611d55565b60405180910390f35b34801561031e57600080fd5b50610327610e33565b6040516103349190611b45565b60405180910390f35b34801561034957600080fd5b50610352610e42565b60405161035f9190611b45565b60405180910390f35b34801561037457600080fd5b5061037d610e6b565b60405161038a9190611c12565b60405180910390f35b34801561039f57600080fd5b506103a8610e71565b6040516103b59190611c12565b60405180910390f35b3480156103ca57600080fd5b506103e560048036038101906103e09190611e4e565b610e77565b005b3480156103f357600080fd5b506103fc611267565b6040516104099190611b45565b60405180910390f35b34801561041e57600080fd5b5061042761128d565b005b34801561043557600080fd5b50610450600480360381019061044b9190611d0d565b61134b565b005b34801561045e57600080fd5b506104676113d1565b6040516104749190611c12565b60405180910390f35b600960009054906101000a900460ff16156104cd576040517f08c379a00000000000000000000000000000000000000000000000000000000081526004016104c490611f33565b60405180910390fd5b600073ffffffffffffffffffffffffffffffffffffffff168173ffffffffffffffffffffffffffffffffffffffff160361053c576040517f08c379a000000000000000000000000000000000000000000000000000000000815260040161053390611f9f565b60405180910390fd5b600280549050838390501115610587576040517f08c379a000000000000000000000000000000000000000000000000000000000815260040161057e9061200b565b60405180910390fd5b600030600854836040516020016105a093929190612094565b60405160208183030381529060405280519060200120905060006105c3826113d7565b905060008585905067ffffffffffffffff8111156105e4576105e36120d1565b5b6040519080825280602002602001820160405280156106125781602001602082028036833780820191505090505b5090506000805b878790508110156107ff576000610697858a8a8581811061063d5761063c612100565b5b905060200281019061064f919061213e565b8080601f016020809104026020016040519081016040528093929190818152602001838380828437600081840152601f19601f82011690508083019250505050505050611407565b90506106a281610cd7565b6106e1576040517f08c379a00000000000000000000000000000000000000000000000000000000081526004016106d8906121ed565b60405180910390fd5b60006001905060005b84811015610755578273ffffffffffffffffffffffffffffffffffffffff1686828151811061071c5761071b612100565b5b602002602001015173ffffffffffffffffffffffffffffffffffffffff16036107485760009150610755565b80806001019150506106ea565b5080610796576040517f08c379a000000000000000000000000000000000000000000000000000000000815260040161078d90612259565b60405180910390fd5b818585806107a3906122a8565b9650815181106107b6576107b5612100565b5b602002602001019073ffffffffffffffffffffffffffffffffffffffff16908173ffffffffffffffffffffffffffffffffffffffff168152505050508080600101915050610619565b50600454811015610845576040517f08c379a000000000000000000000000000000000000000000000000000000000815260040161083c9061233c565b60405180910390fd5b84600660006101000a81548173ffffffffffffffffffffffffffffffffffffffff021916908373ffffffffffffffffffffffffffffffffffffffff160217905550426007819055506001600960006101000a81548160ff0219169083151502179055508473ffffffffffffffffffffffffffffffffffffffff167ff3253ce410358e4a4773b3dadc52a1efd9cdbcb57d761dc991e790209aee38876007546005546008546040516108f89392919061235c565b60405180910390a233600360006101000a81548173ffffffffffffffffffffffffffffffffffffffff021916908373ffffffffffffffffffffffffffffffffffffffff16021790555060086000815480929190610954906122a8565b919050555050505050505050565b6002818154811061097257600080fd5b906000526020600020016000915054906101000a900473ffffffffffffffffffffffffffffffffffffffff1681565b6109a96114c4565b600960009054906101000a900460ff166109f8576040517f08c379a00000000000000000000000000000000000000000000000000000000081526004016109ef906123df565b60405180910390fd5b600554600754610a0891906123ff565b421015610a4a576040517f08c379a0000000000000000000000000000000000000000000000000000000008152600401610a419061247f565b60405180910390fd5b610a52610e42565b73ffffffffffffffffffffffffffffffffffffffff163373ffffffffffffffffffffffffffffffffffffffff161480610a905750610a8f33610cd7565b5b80610ae85750600360009054906101000a900473ffffffffffffffffffffffffffffffffffffffff1673ffffffffffffffffffffffffffffffffffffffff163373ffffffffffffffffffffffffffffffffffffffff16145b80610b405750600660009054906101000a900473ffffffffffffffffffffffffffffffffffffffff1673ffffffffffffffffffffffffffffffffffffffff163373ffffffffffffffffffffffffffffffffffffffff16145b610b7f576040517f08c379a0000000000000000000000000000000000000000000000000000000008152600401610b7690612511565b60405180910390fd5b610bac8282600660009054906101000a900473ffffffffffffffffffffffffffffffffffffffff1661150a565b6000600960006101000a81548160ff0219169083151502179055506000600660006101000a81548173ffffffffffffffffffffffffffffffffffffffff021916908373ffffffffffffffffffffffffffffffffffffffff1602179055506000600781905550610c1961178d565b5050565b60045481565b60606002805480602002602001604051908101604052809291908181526020018280548015610ca757602002820191906000526020600020905b8160009054906101000a900473ffffffffffffffffffffffffffffffffffffffff1673ffffffffffffffffffffffffffffffffffffffff1681526020019060010190808311610c5d575b5050505050905090565b600360009054906101000a900473ffffffffffffffffffffffffffffffffffffffff1681565b600080600090505b600280549050811015610d74578273ffffffffffffffffffffffffffffffffffffffff1660028281548110610d1757610d16612100565b5b9060005260206000200160009054906101000a900473ffffffffffffffffffffffffffffffffffffffff1673ffffffffffffffffffffffffffffffffffffffff1603610d67576001915050610d7a565b8080600101915050610cdf565b50600090505b919050565b6000600280549050905090565b610d94611796565b600082118015610da75750838390508211155b610de6576040517f08c379a0000000000000000000000000000000000000000000000000000000008152600401610ddd9061257d565b60405180910390fd5b838360029190610df79291906118e9565b50816004819055508060058190555050505050565b610e14611796565b610e1e600061181d565b565b600960009054906101000a900460ff1681565b6000610e3d610e42565b905090565b60008060009054906101000a900473ffffffffffffffffffffffffffffffffffffffff16905090565b60085481565b60055481565b610e7f611796565b610e876114c4565b600073ffffffffffffffffffffffffffffffffffffffff168573ffffffffffffffffffffffffffffffffffffffff1603610ef6576040517f08c379a0000000000000000000000000000000000000000000000000000000008152600401610eed906125e9565b60405180910390fd5b8015610fbe5760004790506000811115610fb85760008673ffffffffffffffffffffffffffffffffffffffff1682604051610f309061263a565b60006040518083038185875af1925050503d8060008114610f6d576040519150601f19603f3d011682016040523d82523d6000602084013e610f72565b606091505b5050905080610fb6576040517f08c379a0000000000000000000000000000000000000000000000000000000008152600401610fad9061269b565b60405180910390fd5b505b506110b9565b60008411156110b8578347101561100a576040517f08c379a000000000000000000000000000000000000000000000000000000000815260040161100190612707565b60405180910390fd5b60008573ffffffffffffffffffffffffffffffffffffffff16856040516110309061263a565b60006040518083038185875af1925050503d806000811461106d576040519150601f19603f3d011682016040523d82523d6000602084013e611072565b606091505b50509050806110b6576040517f08c379a00000000000000000000000000000000000000000000000000000000081526004016110ad9061269b565b60405180910390fd5b505b5b60005b838390508110156112095760008484838181106110dc576110db612100565b5b90506020020160208101906110f19190611d0d565b905060008173ffffffffffffffffffffffffffffffffffffffff166370a08231306040518263ffffffff1660e01b815260040161112e9190611b45565b602060405180830381865afa15801561114b573d6000803e3d6000fd5b505050506040513d601f19601f8201168201806040525081019061116f919061273c565b905060008111156111fa578173ffffffffffffffffffffffffffffffffffffffff1663a9059cbb89836040518363ffffffff1660e01b81526004016111b59291906127c8565b6020604051808303816000875af11580156111d4573d6000803e3d6000fd5b505050506040513d601f19601f820116820180604052508101906111f89190612806565b505b505080806001019150506110bc565b508473ffffffffffffffffffffffffffffffffffffffff167fe6d858f14d755446648a6e0c8ab8b5a0f58ccc7920d4c910b0454e4dcd869af0426040516112509190611c12565b60405180910390a261126061178d565b5050505050565b600660009054906101000a900473ffffffffffffffffffffffffffffffffffffffff1681565b611295611796565b600960009054906101000a900460ff166112e4576040517f08c379a00000000000000000000000000000000000000000000000000000000081526004016112db906123df565b60405180910390fd5b6000600960006101000a81548160ff0219169083151502179055506000600660006101000a81548173ffffffffffffffffffffffffffffffffffffffff021916908373ffffffffffffffffffffffffffffffffffffffff1602179055506000600781905550565b611353611796565b600073ffffffffffffffffffffffffffffffffffffffff168173ffffffffffffffffffffffffffffffffffffffff16036113c55760006040517f1e4fbdf70000000000000000000000000000000000000000000000000000000081526004016113bc9190611b45565b60405180910390fd5b6113ce8161181d565b50565b60075481565b6000816040516020016113ea91906128b5565b604051602081830303815290604052805190602001209050919050565b6000604182511461144d576040517f08c379a000000000000000000000000000000000000000000000000000000000815260040161144490612927565b60405180910390fd5b60008060006020850151925060408501519150606085015160001a90506001868285856040516000815260200160405260405161148d9493929190612972565b6020604051602081039080840390855afa1580156114af573d6000803e3d6000fd5b50505060206040510351935050505092915050565b600260015403611500576040517f3ee5aeb500000000000000000000000000000000000000000000000000000000815260040160405180910390fd5b6002600181905550565b600047905060008111156115c65760008273ffffffffffffffffffffffffffffffffffffffff168260405161153e9061263a565b60006040518083038185875af1925050503d806000811461157b576040519150601f19603f3d011682016040523d82523d6000602084013e611580565b606091505b50509050806115c4576040517f08c379a00000000000000000000000000000000000000000000000000000000081526004016115bb9061269b565b60405180910390fd5b505b60005b848490508110156117165760008585838181106115e9576115e8612100565b5b90506020020160208101906115fe9190611d0d565b905060008173ffffffffffffffffffffffffffffffffffffffff166370a08231306040518263ffffffff1660e01b815260040161163b9190611b45565b602060405180830381865afa158015611658573d6000803e3d6000fd5b505050506040513d601f19601f8201168201806040525081019061167c919061273c565b90506000811115611707578173ffffffffffffffffffffffffffffffffffffffff1663a9059cbb86836040518363ffffffff1660e01b81526004016116c29291906129b7565b6020604051808303816000875af11580156116e1573d6000803e3d6000fd5b505050506040513d601f19601f820116820180604052508101906117059190612806565b505b505080806001019150506115c9565b50600660009054906101000a900473ffffffffffffffffffffffffffffffffffffffff1673ffffffffffffffffffffffffffffffffffffffff167fe6d858f14d755446648a6e0c8ab8b5a0f58ccc7920d4c910b0454e4dcd869af04260405161177f9190611c12565b60405180910390a250505050565b60018081905550565b61179e6118e1565b73ffffffffffffffffffffffffffffffffffffffff166117bc610e42565b73ffffffffffffffffffffffffffffffffffffffff161461181b576117df6118e1565b6040517f118cdaa70000000000000000000000000000000000000000000000000000000081526004016118129190611b45565b60405180910390fd5b565b60008060009054906101000a900473ffffffffffffffffffffffffffffffffffffffff169050816000806101000a81548173ffffffffffffffffffffffffffffffffffffffff021916908373ffffffffffffffffffffffffffffffffffffffff1602179055508173ffffffffffffffffffffffffffffffffffffffff168173ffffffffffffffffffffffffffffffffffffffff167f8be0079c531659141344cd1fd0a4f28419497f9722a3daafe3b4186f6b6457e060405160405180910390a35050565b600033905090565b828054828255906000526020600020908101928215611978579160200282015b8281111561197757823573ffffffffffffffffffffffffffffffffffffffff168260006101000a81548173ffffffffffffffffffffffffffffffffffffffff021916908373ffffffffffffffffffffffffffffffffffffffff16021790555091602001919060010190611909565b5b5090506119859190611989565b5090565b5b808211156119a257600081600090555060010161198a565b5090565b600080fd5b600080fd5b600080fd5b600080fd5b600080fd5b60008083601f8401126119d5576119d46119b0565b5b8235905067ffffffffffffffff8111156119f2576119f16119b5565b5b602083019150836020820283011115611a0e57611a0d6119ba565b5b9250929050565b600073ffffffffffffffffffffffffffffffffffffffff82169050919050565b6000611a4082611a15565b9050919050565b611a5081611a35565b8114611a5b57600080fd5b50565b600081359050611a6d81611a47565b92915050565b600080600060408486031215611a8c57611a8b6119a6565b5b600084013567ffffffffffffffff811115611aaa57611aa96119ab565b5b611ab6868287016119bf565b93509350506020611ac986828701611a5e565b9150509250925092565b6000819050919050565b611ae681611ad3565b8114611af157600080fd5b50565b600081359050611b0381611add565b92915050565b600060208284031215611b1f57611b1e6119a6565b5b6000611b2d84828501611af4565b91505092915050565b611b3f81611a35565b82525050565b6000602082019050611b5a6000830184611b36565b92915050565b60008083601f840112611b7657611b756119b0565b5b8235905067ffffffffffffffff811115611b9357611b926119b5565b5b602083019150836020820283011115611baf57611bae6119ba565b5b9250929050565b60008060208385031215611bcd57611bcc6119a6565b5b600083013567ffffffffffffffff811115611beb57611bea6119ab565b5b611bf785828601611b60565b92509250509250929050565b611c0c81611ad3565b82525050565b6000602082019050611c276000830184611c03565b92915050565b600081519050919050565b600082825260208201905092915050565b6000819050602082019050919050565b611c6281611a35565b82525050565b6000611c748383611c59565b60208301905092915050565b6000602082019050919050565b6000611c9882611c2d565b611ca28185611c38565b9350611cad83611c49565b8060005b83811015611cde578151611cc58882611c68565b9750611cd083611c80565b925050600181019050611cb1565b5085935050505092915050565b60006020820190508181036000830152611d058184611c8d565b905092915050565b600060208284031215611d2357611d226119a6565b5b6000611d3184828501611a5e565b91505092915050565b60008115159050919050565b611d4f81611d3a565b82525050565b6000602082019050611d6a6000830184611d46565b92915050565b60008060008060608587031215611d8a57611d896119a6565b5b600085013567ffffffffffffffff811115611da857611da76119ab565b5b611db487828801611b60565b94509450506020611dc787828801611af4565b9250506040611dd887828801611af4565b91505092959194509250565b6000611def82611a15565b9050919050565b611dff81611de4565b8114611e0a57600080fd5b50565b600081359050611e1c81611df6565b92915050565b611e2b81611d3a565b8114611e3657600080fd5b50565b600081359050611e4881611e22565b92915050565b600080600080600060808688031215611e6a57611e696119a6565b5b6000611e7888828901611e0d565b9550506020611e8988828901611af4565b945050604086013567ffffffffffffffff811115611eaa57611ea96119ab565b5b611eb688828901611b60565b93509350506060611ec988828901611e39565b9150509295509295909350565b600082825260208201905092915050565b7f416c72656164792061726d656400000000000000000000000000000000000000600082015250565b6000611f1d600d83611ed6565b9150611f2882611ee7565b602082019050919050565b60006020820190508181036000830152611f4c81611f10565b9050919050565b7f496e76616c69642064657374696e6174696f6e00000000000000000000000000600082015250565b6000611f89601383611ed6565b9150611f9482611f53565b602082019050919050565b60006020820190508181036000830152611fb881611f7c565b9050919050565b7f546f6f206d616e79207369676e61747572657300000000000000000000000000600082015250565b6000611ff5601383611ed6565b915061200082611fbf565b602082019050919050565b6000602082019050818103600083015261202481611fe8565b9050919050565b60008160601b9050919050565b60006120438261202b565b9050919050565b600061205582612038565b9050919050565b61206d61206882611a35565b61204a565b82525050565b6000819050919050565b61208e61208982611ad3565b612073565b82525050565b60006120a0828661205c565b6014820191506120b0828561207d565b6020820191506120c0828461205c565b601482019150819050949350505050565b7f4e487b7100000000000000000000000000000000000000000000000000000000600052604160045260246000fd5b7f4e487b7100000000000000000000000000000000000000000000000000000000600052603260045260246000fd5b600080fd5b600080fd5b600080fd5b6000808335600160200384360303811261215b5761215a61212f565b5b80840192508235915067ffffffffffffffff82111561217d5761217c612134565b5b60208301925060018202360383131561219957612198612139565b5b509250929050565b7f496e76616c6964207369676e6174757265000000000000000000000000000000600082015250565b60006121d7601183611ed6565b91506121e2826121a1565b602082019050919050565b60006020820190508181036000830152612206816121ca565b9050919050565b7f4475706c6963617465207369676e617475726500000000000000000000000000600082015250565b6000612243601383611ed6565b915061224e8261220d565b602082019050919050565b6000602082019050818103600083015261227281612236565b9050919050565b7f4e487b7100000000000000000000000000000000000000000000000000000000600052601160045260246000fd5b60006122b382611ad3565b91507fffffffffffffffffffffffffffffffffffffffffffffffffffffffffffffffff82036122e5576122e4612279565b5b600182019050919050565b7f496e73756666696369656e742076616c6964207369676e617475726573000000600082015250565b6000612326601d83611ed6565b9150612331826122f0565b602082019050919050565b6000602082019050818103600083015261235581612319565b9050919050565b60006060820190506123716000830186611c03565b61237e6020830185611c03565b61238b6040830184611c03565b949350505050565b7f4e6f742061726d65640000000000000000000000000000000000000000000000600082015250565b60006123c9600983611ed6565b91506123d482612393565b602082019050919050565b600060208201905081810360008301526123f8816123bc565b9050919050565b600061240a82611ad3565b915061241583611ad3565b925082820190508082111561242d5761242c612279565b5b92915050565b7f44656c6179206e6f742070617373656400000000000000000000000000000000600082015250565b6000612469601083611ed6565b915061247482612433565b602082019050919050565b600060208201905081810360008301526124988161245c565b9050919050565b7f4e6f7420617574686f72697a656420746f2074726967676572207472616e736660008201527f6572000000000000000000000000000000000000000000000000000000000000602082015250565b60006124fb602283611ed6565b91506125068261249f565b604082019050919050565b6000602082019050818103600083015261252a816124ee565b9050919050565b7f496e76616c6964207468726573686f6c64000000000000000000000000000000600082015250565b6000612567601183611ed6565b915061257282612531565b602082019050919050565b600060208201905081810360008301526125968161255a565b9050919050565b7f496e76616c696420726563697069656e74000000000000000000000000000000600082015250565b60006125d3601183611ed6565b91506125de8261259d565b602082019050919050565b60006020820190508181036000830152612602816125c6565b9050919050565b600081905092915050565b50565b6000612624600083612609565b915061262f82612614565b600082019050919050565b600061264582612617565b9150819050919050565b7f455448207472616e73666572206661696c656400000000000000000000000000600082015250565b6000612685601383611ed6565b91506126908261264f565b602082019050919050565b600060208201905081810360008301526126b481612678565b9050919050565b7f496e73756666696369656e742045544800000000000000000000000000000000600082015250565b60006126f1601083611ed6565b91506126fc826126bb565b602082019050919050565b60006020820190508181036000830152612720816126e4565b9050919050565b60008151905061273681611add565b92915050565b600060208284031215612752576127516119a6565b5b600061276084828501612727565b91505092915050565b6000819050919050565b600061278e61278961278484611a15565b612769565b611a15565b9050919050565b60006127a082612773565b9050919050565b60006127b282612795565b9050919050565b6127c2816127a7565b82525050565b60006040820190506127dd60008301856127b9565b6127ea6020830184611c03565b9392505050565b60008151905061280081611e22565b92915050565b60006020828403121561281c5761281b6119a6565b5b600061282a848285016127f1565b91505092915050565b600081905092915050565b7f19457468657265756d205369676e6564204d6573736167653a0a333200000000600082015250565b6000612874601c83612833565b915061287f8261283e565b601c82019050919050565b6000819050919050565b6000819050919050565b6128af6128aa8261288a565b612894565b82525050565b60006128c082612867565b91506128cc828461289e565b60208201915081905092915050565b7f496e76616c6964207369676e6174757265206c656e6774680000000000000000600082015250565b6000612911601883611ed6565b915061291c826128db565b602082019050919050565b6000602082019050818103600083015261294081612904565b9050919050565b6129508161288a565b82525050565b600060ff82169050919050565b61296c81612956565b82525050565b60006080820190506129876000830187612947565b6129946020830186612963565b6129a16040830185612947565b6129ae6060830184612947565b95945050505050565b60006040820190506129cc6000830185611b36565b6129d96020830184611c03565b939250505056fea2646970667358221220d084d39aca2b6f3cd97cf73358974326aa3174b8e981d4ced36b4cb14c6a10cd64736f6c634300081c0033",
  "linkReferences": {},
  "deployedLinkReferences": {}
}