{
  "_format": "hh-sol-artifact-1",
  "contractName": "SuccessionManager",
  "sourceName": "contracts/SuccessionManager.sol",
  "abi": [
    {
      "inputs": [
        {
          "internalType": "address",
          "name": "_owner",
          "type": "address"
        },
        {
          "internalType": "address[]",
          "name": "_heirs",
          "type": "address[]"
        },
        {
          "internalType": "uint256",
          "name": "_threshold",
          "type": "uint256"
        },
        {
          "internalType": "uint256",
          "name": "_delayPeriod",
          "type": "uint256"
        }
      ],
      "stateMutability": "payable",
      "type": "constructor"
    },
    {
      "inputs": [
        {
          "internalType": "address",
          "name": "owner",
          "type": "address"
        }
      ],
      "name": "OwnableInvalidOwner",
      "type": "error"
    },
    {
      "inputs": [
        {
          "internalType": "address",
          "name": "account",
          "type": "address"
        }
      ],
      "name": "OwnableUnauthorizedAccount",
      "type": "error"
    },
    {
      "inputs": [],
      "name": "ReentrancyGuardReentrantCall",
      "type": "error"
    },
    {
      "anonymous": false,
      "inputs": [
        {
          "indexed": true,
          "internalType": "address",
          "name": "destination",
          "type": "address"
        },
        {
          "indexed": false,
          "internalType": "uint256",
          "name": "timestamp",
          "type": "uint256"
        },
        {
          "indexed": false,
          "internalType": "uint256",
          "name": "delay",
          "type": "uint256"
        },
        {
          "indexed": false,
          "internalType": "uint256",
          "name": "nonce",
          "type": "uint256"
        }
      ],
      "name": "Armed",
      "type": "event"
    },
    {
      "anonymous": false,
      "inputs": [
        {
          "indexed": true,
          "internalType": "address",
          "name": "previousOwner",
          "type": "address"
        },
        {
          "indexed": true,
          "internalType": "address",
          "name": "newOwner",
          "type": "address"
        }
      ],
      "name": "OwnershipTransferred",
      "type": "event"
    },
    {
      "anonymous": false,
      "inputs": [
        {
          "indexed": true,
          "internalType": "address",
          "name": "destination",
          "type": "address"
        },
        {
          "indexed": false,
          "internalType": "uint256",
          "name": "timestamp",
          "type": "uint256"
        }
      ],
      "name": "Transferred",
      "type": "event"
    },
    {
      "inputs": [
        {
          "internalType": "bytes[]",
          "name": "signatures",
          "type": "bytes[]"
        },
        {
          "internalType": "address",
          "name": "destination",
          "type": "address"
        }
      ],
      "name": "arm",
      "outputs": [],
      "stateMutability": "nonpayable",
      "type": "function"
    },
    {
      "inputs": [],
      "name": "armExecutor",
      "outputs": [
        {
          "internalType": "address",
          "name": "",
          "type": "address"
        }
      ],
      "stateMutability": "view",
      "type": "function"
    },
    {
      "inputs": [],
      "name": "armTimestamp",
      "outputs": [
        {
          "internalType": "uint256",
          "name": "",
          "type": "uint256"
        }
      ],
      "stateMutability": "view",
      "type": "function"
    },
    {
      "inputs": [],
      "name": "armedDestination",
      "outputs": [
        {
          "internalType": "address",
          "name": "",
          "type": "address"
        }
      ],
      "stateMutability": "view",
      "type": "function"
    },
    {
      "inputs": [],
      "name": "cancel",
      "outputs": [],
      "stateMutability": "nonpayable",
      "type": "function"
    },
    {
      "inputs": [],
      "name": "delayPeriod",
      "outputs": [
        {
          "internalType": "uint256",
          "name": "",
          "type": "uint256"
        }
      ],
      "stateMutability": "view",
      "type": "function"
    },
    {
      "inputs": [],
      "name": "getHeirs",
      "outputs": [
        {
          "internalType": "address[]",
          "name": "",
          "type": "address[]"
        }
      ],
      "stateMutability": "view",
      "type": "function"
    },
    {
      "inputs": [],
      "name": "getHeirsCount",
      "outputs": [
        {
          "internalType": "uint256",
          "name": "",
          "type": "uint256"
        }
      ],
      "stateMutability": "view",
      "type": "function"
    },
    {
      "inputs": [],
      "name": "getOwner",
      "outputs": [
        {
          "internalType": "address",
          "name": "",
          "type": "address"
        }
      ],
      "stateMutability": "view",
      "type": "function"
    },
    {
      "inputs": [
        {
          "internalType": "uint256",
          "name": "",
          "type": "uint256"
        }
      ],
      "name": "heirs",
      "outputs": [
        {
          "internalType": "address",
          "name": "",
          "type": "address"
        }
      ],
      "stateMutability": "view",
      "type": "function"
    },
    {
      "inputs": [],
      "name": "isArmed",
      "outputs": [
        {
          "internalType": "bool",
          "name": "",
          "type": "bool"
        }
      ],
      "stateMutability": "view",
      "type": "function"
    },
    {
      "inputs": [
        {
          "internalType": "address",
          "name": "addr",
          "type": "address"
        }
      ],
      "name": "isHeir",
      "outputs": [
        {
          "internalType": "bool",
          "name": "",
          "type": "bool"
        }
      ],
      "stateMutability": "view",
      "type": "function"
    },
    {
      "inputs": [],
      "name": "nonce",
      "outputs": [
        {
          "internalType": "uint256",
          "name": "",
          "type": "uint256"
        }
      ],
      "stateMutability": "view",
      "type": "function"
    },
    {
      "inputs": [],
      "name": "owner",
      "outputs": [
        {
          "internalType": "address",
          "name": "",
          "type": "address"
        }
      ],
      "stateMutability": "view",
      "type": "function"
    },
    {
      "inputs": [
        {
          "internalType": "address payable",
          "name": "to",
          "type": "address"
        },
        {
          "internalType": "uint256",
          "name": "amount",
          "type": "uint256"
        }
      ],
      "name": "ownerTransfer",
      "outputs": [],
      "stateMutability": "nonpayable",
      "type": "function"
    },
    {
      "inputs": [],
      "name": "renounceOwnership",
      "outputs": [],
      "stateMutability": "nonpayable",
      "type": "function"
    },
    {
      "inputs": [],
      "name": "threshold",
      "outputs": [
        {
          "internalType": "uint256",
          "name": "",
          "type": "uint256"
        }
      ],
      "stateMutability": "view",
      "type": "function"
    },
    {
      "inputs": [
        {
          "internalType": "address",
          "name": "newOwner",
          "type": "address"
        }
      ],
      "name": "transferOwnership",
      "outputs": [],
      "stateMutability": "nonpayable",
      "type": "function"
    },
    {
      "inputs": [
        {
          "internalType": "address[]",
          "name": "tokenAddresses",
          "type": "address[]"
        }
      ],
      "name": "triggerTransfer",
      "outputs": [],
      "stateMutability": "nonpayable",
      "type": "function"
    },
    {
      "inputs": [
        {
          "internalType": "address[]",
          "name": "_newHeirs",
          "type": "address[]"
        },
        {
          "internalType": "uint256",
          "name": "_newThreshold",
          "type": "uint256"
        },
        {
          "internalType": "uint256",
          "name": "_delayPeriod",
          "type": "uint256"
        }
      ],
      "name": "updateHeirs",
      "outputs": [],
      "stateMutability": "nonpayable",
      "type": "function"
    },
    {
      "inputs": [],
      "name": "withdraw",
      "outputs": [],
      "stateMutability": "nonpayable",
      "type": "function"
    },
    {
      "stateMutability": "payable",
      "type": "receive"
    }
  ],
  "bytecode": "0x6080604052604051612efd380380612efd83398181016040528101906100259190610499565b83600073ffffffffffffffffffffffffffffffffffffffff168173ffffffffffffffffffffffffffffffffffffffff16036100985760006040517f1e4fbdf700000000000000000000000000000000000000000000000000000000815260040161008f919061052b565b60405180910390fd5b6100a78161012d60201b60201c565b50600180819055506000821180156100c0575082518211155b6100ff576040517f08c379a00000000000000000000000000000000000000000000000000000000081526004016100f6906105a3565b60405180910390fd5b82600290805190602001906101159291906101f1565b508160048190555080600581905550505050506105c3565b60008060009054906101000a900473ffffffffffffffffffffffffffffffffffffffff169050816000806101000a81548173ffffffffffffffffffffffffffffffffffffffff021916908373ffffffffffffffffffffffffffffffffffffffff1602179055508173ffffffffffffffffffffffffffffffffffffffff168173ffffffffffffffffffffffffffffffffffffffff167f8be0079c531659141344cd1fd0a4f28419497f9722a3daafe3b4186f6b6457e060405160405180910390a35050565b82805482825590600052602060002090810192821561026a579160200282015b828111156102695782518260006101000a81548173ffffffffffffffffffffffffffffffffffffffff021916908373ffffffffffffffffffffffffffffffffffffffff16021790555091602001919060010190610211565b5b509050610277919061027b565b5090565b5b8082111561029457600081600090555060010161027c565b5090565b6000604051905090565b600080fd5b600080fd5b600073ffffffffffffffffffffffffffffffffffffffff82169050919050565b60006102d7826102ac565b9050919050565b6102e7816102cc565b81146102f257600080fd5b50565b600081519050610304816102de565b92915050565b600080fd5b6000601f19601f8301169050919050565b7f4e487b7100000000000000000000000000000000000000000000000000000000600052604160045260246000fd5b6103588261030f565b810181811067ffffffffffffffff8211171561037757610376610320565b5b80604052505050565b600061038a610298565b9050610396828261034f565b919050565b600067ffffffffffffffff8211156103b6576103b5610320565b5b602082029050602081019050919050565b600080fd5b60006103df6103da8461039b565b610380565b90508083825260208201905060208402830185811115610402576104016103c7565b5b835b8181101561042b578061041788826102f5565b845260208401935050602081019050610404565b5050509392505050565b600082601f83011261044a5761044961030a565b5b815161045a8482602086016103cc565b91505092915050565b6000819050919050565b61047681610463565b811461048157600080fd5b50565b6000815190506104938161046d565b92915050565b600080600080608085870312156104b3576104b26102a2565b5b60006104c1878288016102f5565b945050602085015167ffffffffffffffff8111156104e2576104e16102a7565b5b6104ee87828801610435565b93505060406104ff87828801610484565b925050606061051087828801610484565b91505092959194509250565b610525816102cc565b82525050565b6000602082019050610540600083018461051c565b92915050565b600082825260208201905092915050565b7f496e76616c6964207468726573686f6c64000000000000000000000000000000600082015250565b600061058d601183610546565b915061059882610557565b602082019050919050565b600060208201905081810360008301526105bc81610580565b9050919050565b61292b806105d26000396000f3fe60806040526004361061012e5760003560e01c8063715018a6116100ab578063b1c94d941161006f578063b1c94d94146103b5578063d2f3e4d6146103e0578063d85c89661461040b578063ea8a1af014610434578063f2fde38b1461044b578063f330abb61461047457610135565b8063715018a6146102f25780637a3f9a1414610309578063893d20e8146103345780638da5cb5b1461035f578063affed0e01461038a57610135565b80634eae51f4116100f25780634eae51f41461020b57806351437bdb14610236578063568ddfc614610261578063598f6a161461029e578063701416d0146102c957610135565b806303bffa7d1461013a5780631c0795c3146101635780633ccfd60b146101a057806341ac85f6146101b757806342cde4e8146101e057610135565b3661013557005b600080fd5b34801561014657600080fd5b50610161600480360381019061015c9190611929565b61049f565b005b34801561016f57600080fd5b5061018a600480360381019061018591906119bf565b610984565b60405161019791906119fb565b60405180910390f35b3480156101ac57600080fd5b506101b56109c3565b005b3480156101c357600080fd5b506101de60048036038101906101d99190611a6c565b610aca565b005b3480156101ec57600080fd5b506101f5610fdb565b6040516102029190611ac8565b60405180910390f35b34801561021757600080fd5b50610220610fe1565b60405161022d9190611ba1565b60405180910390f35b34801561024257600080fd5b5061024b61106f565b60405161025891906119fb565b60405180910390f35b34801561026d57600080fd5b5061028860048036038101906102839190611bc3565b611095565b6040516102959190611c0b565b60405180910390f35b3480156102aa57600080fd5b506102b361113d565b6040516102c09190611ac8565b60405180910390f35b3480156102d557600080fd5b506102f060048036038101906102eb9190611c26565b61114a565b005b3480156102fe57600080fd5b506103076111ca565b005b34801561031557600080fd5b5061031e6111de565b60405161032b9190611c0b565b60405180910390f35b34801561034057600080fd5b506103496111f1565b60405161035691906119fb565b60405180910390f35b34801561036b57600080fd5b50610374611200565b60405161038191906119fb565b60405180910390f35b34801561039657600080fd5b5061039f611229565b6040516103ac9190611ac8565b60405180910390f35b3480156103c157600080fd5b506103ca61122f565b6040516103d79190611ac8565b60405180910390f35b3480156103ec57600080fd5b506103f5611235565b60405161040291906119fb565b60405180910390f35b34801561041757600080fd5b50610432600480360381019061042d9190611cd8565b61125b565b005b34801561044057600080fd5b506104496113c6565b005b34801561045757600080fd5b50610472600480360381019061046d9190611bc3565b611484565b005b34801561048057600080fd5b5061048961150a565b6040516104969190611ac8565b60405180910390f35b600960009054906101000a900460ff16156104ef576040517f08c379a00000000000000000000000000000000000000000000000000000000081526004016104e690611d75565b60405180910390fd5b600073ffffffffffffffffffffffffffffffffffffffff168173ffffffffffffffffffffffffffffffffffffffff160361055e576040517f08c379a000000000000000000000000000000000000000000000000000000000815260040161055590611de1565b60405180910390fd5b6002805490508383905011156105a9576040517f08c379a00000000000000000000000000000000000000000000000000000000081526004016105a090611e4d565b60405180910390fd5b600030600854836040516020016105c293929190611ed6565b60405160208183030381529060405280519060200120905060006105e582611510565b905060008585905067ffffffffffffffff81111561060657610605611f13565b5b6040519080825280602002602001820160405280156106345781602001602082028036833780820191505090505b5090506000805b878790508110156108215760006106b9858a8a8581811061065f5761065e611f42565b5b90506020028101906106719190611f80565b8080601f016020809104026020016040519081016040528093929190818152602001838380828437600081840152601f19601f82011690508083019250505050505050611540565b90506106c481611095565b610703576040517f08c379a00000000000000000000000000000000000000000000000000000000081526004016106fa9061202f565b60405180910390fd5b60006001905060005b84811015610777578273ffffffffffffffffffffffffffffffffffffffff1686828151811061073e5761073d611f42565b5b602002602001015173ffffffffffffffffffffffffffffffffffffffff160361076a5760009150610777565b808060010191505061070c565b50806107b8576040517f08c379a00000000000000000000000000000000000000000000000000000000081526004016107af9061209b565b60405180910390fd5b818585806107c5906120ea565b9650815181106107d8576107d7611f42565b5b602002602001019073ffffffffffffffffffffffffffffffffffffffff16908173ffffffffffffffffffffffffffffffffffffffff16815250505050808060010191505061063b565b50600454811015610867576040517f08c379a000000000000000000000000000000000000000000000000000000000815260040161085e9061217e565b60405180910390fd5b84600660006101000a81548173ffffffffffffffffffffffffffffffffffffffff021916908373ffffffffffffffffffffffffffffffffffffffff160217905550426007819055506001600960006101000a81548160ff0219169083151502179055508473ffffffffffffffffffffffffffffffffffffffff167ff3253ce410358e4a4773b3dadc52a1efd9cdbcb57d761dc991e790209aee388760075460055460085460405161091a9392919061219e565b60405180910390a233600360006101000a81548173ffffffffffffffffffffffffffffffffffffffff021916908373ffffffffffffffffffffffffffffffffffffffff16021790555060086000815480929190610976906120ea565b919050555050505050505050565b6002818154811061099457600080fd5b906000526020600020016000915054906101000a900473ffffffffffffffffffffffffffffffffffffffff1681565b6109cb6115fd565b600047905060008111610a13576040517f08c379a0000000000000000000000000000000000000000000000000000000008152600401610a0a90612221565b60405180910390fd5b6000610a1d611200565b73ffffffffffffffffffffffffffffffffffffffff1682604051610a4090612272565b60006040518083038185875af1925050503d8060008114610a7d576040519150601f19603f3d011682016040523d82523d6000602084013e610a82565b606091505b5050905080610ac6576040517f08c379a0000000000000000000000000000000000000000000000000000000008152600401610abd906122d3565b60405180910390fd5b5050565b610ad2611684565b600960009054906101000a900460ff16610b21576040517f08c379a0000000000000000000000000000000000000000000000000000000008152600401610b189061233f565b60405180910390fd5b600554600754610b31919061235f565b421015610b73576040517f08c379a0000000000000000000000000000000000000000000000000000000008152600401610b6a906123df565b60405180910390fd5b610b7b611200565b73ffffffffffffffffffffffffffffffffffffffff163373ffffffffffffffffffffffffffffffffffffffff161480610bb95750610bb833611095565b5b80610c115750600360009054906101000a900473ffffffffffffffffffffffffffffffffffffffff1673ffffffffffffffffffffffffffffffffffffffff163373ffffffffffffffffffffffffffffffffffffffff16145b80610c695750600660009054906101000a900473ffffffffffffffffffffffffffffffffffffffff1673ffffffffffffffffffffffffffffffffffffffff163373ffffffffffffffffffffffffffffffffffffffff16145b610ca8576040517f08c379a0000000000000000000000000000000000000000000000000000000008152600401610c9f90612471565b60405180910390fd5b60004790506000811115610d86576000600660009054906101000a900473ffffffffffffffffffffffffffffffffffffffff1673ffffffffffffffffffffffffffffffffffffffff1682604051610cfe90612272565b60006040518083038185875af1925050503d8060008114610d3b576040519150601f19603f3d011682016040523d82523d6000602084013e610d40565b606091505b5050905080610d84576040517f08c379a0000000000000000000000000000000000000000000000000000000008152600401610d7b906124dd565b60405180910390fd5b505b60005b83839050811015610ef8576000848483818110610da957610da8611f42565b5b9050602002016020810190610dbe9190611bc3565b905060008173ffffffffffffffffffffffffffffffffffffffff166370a08231306040518263ffffffff1660e01b8152600401610dfb91906119fb565b602060405180830381865afa158015610e18573d6000803e3d6000fd5b505050506040513d601f19601f82011682018060405250810190610e3c9190612512565b90506000811115610ee9578173ffffffffffffffffffffffffffffffffffffffff1663a9059cbb600660009054906101000a900473ffffffffffffffffffffffffffffffffffffffff16836040518363ffffffff1660e01b8152600401610ea492919061253f565b6020604051808303816000875af1158015610ec3573d6000803e3d6000fd5b505050506040513d601f19601f82011682018060405250810190610ee79190612594565b505b50508080600101915050610d89565b506000600960006101000a81548160ff0219169083151502179055506000600660006101000a81548173ffffffffffffffffffffffffffffffffffffffff021916908373ffffffffffffffffffffffffffffffffffffffff1602179055506000600781905550600660009054906101000a900473ffffffffffffffffffffffffffffffffffffffff1673ffffffffffffffffffffffffffffffffffffffff167fe6d858f14d755446648a6e0c8ab8b5a0f58ccc7920d4c910b0454e4dcd869af042604051610fc69190611ac8565b60405180910390a250610fd76116ca565b5050565b60045481565b6060600280548060200260200160405190810160405280929190818152602001828054801561106557602002820191906000526020600020905b8160009054906101000a900473ffffffffffffffffffffffffffffffffffffffff1673ffffffffffffffffffffffffffffffffffffffff168152602001906001019080831161101b575b5050505050905090565b600360009054906101000a900473ffffffffffffffffffffffffffffffffffffffff1681565b600080600090505b600280549050811015611132578273ffffffffffffffffffffffffffffffffffffffff16600282815481106110d5576110d4611f42565b5b9060005260206000200160009054906101000a900473ffffffffffffffffffffffffffffffffffffffff1673ffffffffffffffffffffffffffffffffffffffff1603611125576001915050611138565b808060010191505061109d565b50600090505b919050565b6000600280549050905090565b6111526115fd565b6000821180156111655750838390508211155b6111a4576040517f08c379a000000000000000000000000000000000000000000000000000000000815260040161119b9061260d565b60405180910390fd5b8383600291906111b592919061179f565b50816004819055508060058190555050505050565b6111d26115fd565b6111dc60006116d3565b565b600960009054906101000a900460ff1681565b60006111fb611200565b905090565b60008060009054906101000a900473ffffffffffffffffffffffffffffffffffffffff16905090565b60085481565b60055481565b600660009054906101000a900473ffffffffffffffffffffffffffffffffffffffff1681565b6112636115fd565b600073ffffffffffffffffffffffffffffffffffffffff168273ffffffffffffffffffffffffffffffffffffffff16036112d2576040517f08c379a00000000000000000000000000000000000000000000000000000000081526004016112c990612679565b60405180910390fd5b47811115611315576040517f08c379a000000000000000000000000000000000000000000000000000000000815260040161130c906126e5565b60405180910390fd5b60008273ffffffffffffffffffffffffffffffffffffffff168260405161133b90612272565b60006040518083038185875af1925050503d8060008114611378576040519150601f19603f3d011682016040523d82523d6000602084013e61137d565b606091505b50509050806113c1576040517f08c379a00000000000000000000000000000000000000000000000000000000081526004016113b890612751565b60405180910390fd5b505050565b6113ce6115fd565b600960009054906101000a900460ff1661141d576040517f08c379a00000000000000000000000000000000000000000000000000000000081526004016114149061233f565b60405180910390fd5b6000600960006101000a81548160ff0219169083151502179055506000600660006101000a81548173ffffffffffffffffffffffffffffffffffffffff021916908373ffffffffffffffffffffffffffffffffffffffff1602179055506000600781905550565b61148c6115fd565b600073ffffffffffffffffffffffffffffffffffffffff168173ffffffffffffffffffffffffffffffffffffffff16036114fe5760006040517f1e4fbdf70000000000000000000000000000000000000000000000000000000081526004016114f591906119fb565b60405180910390fd5b611507816116d3565b50565b60075481565b60008160405160200161152391906127f3565b604051602081830303815290604052805190602001209050919050565b60006041825114611586576040517f08c379a000000000000000000000000000000000000000000000000000000000815260040161157d90612865565b60405180910390fd5b60008060006020850151925060408501519150606085015160001a9050600186828585604051600081526020016040526040516115c694939291906128b0565b6020604051602081039080840390855afa1580156115e8573d6000803e3d6000fd5b50505060206040510351935050505092915050565b611605611797565b73ffffffffffffffffffffffffffffffffffffffff16611623611200565b73ffffffffffffffffffffffffffffffffffffffff161461168257611646611797565b6040517f118cdaa700000000000000000000000000000000000000000000000000000000815260040161167991906119fb565b60405180910390fd5b565b6002600154036116c0576040517f3ee5aeb500000000000000000000000000000000000000000000000000000000815260040160405180910390fd5b6002600181905550565b60018081905550565b60008060009054906101000a900473ffffffffffffffffffffffffffffffffffffffff169050816000806101000a81548173ffffffffffffffffffffffffffffffffffffffff021916908373ffffffffffffffffffffffffffffffffffffffff1602179055508173ffffffffffffffffffffffffffffffffffffffff168173ffffffffffffffffffffffffffffffffffffffff167f8be0079c531659141344cd1fd0a4f28419497f9722a3daafe3b4186f6b6457e060405160405180910390a35050565b600033905090565b82805482825590600052602060002090810192821561182e579160200282015b8281111561182d57823573ffffffffffffffffffffffffffffffffffffffff168260006101000a81548173ffffffffffffffffffffffffffffffffffffffff021916908373ffffffffffffffffffffffffffffffffffffffff160217905550916020019190600101906117bf565b5b50905061183b919061183f565b5090565b5b80821115611858576000816000905550600101611840565b5090565b600080fd5b600080fd5b600080fd5b600080fd5b600080fd5b60008083601f84011261188b5761188a611866565b5b8235905067ffffffffffffffff8111156118a8576118a761186b565b5b6020830191508360208202830111156118c4576118c3611870565b5b9250929050565b600073ffffffffffffffffffffffffffffffffffffffff82169050919050565b60006118f6826118cb565b9050919050565b611906816118eb565b811461191157600080fd5b50565b600081359050611923816118fd565b92915050565b6000806000604084860312156119425761194161185c565b5b600084013567ffffffffffffffff8111156119605761195f611861565b5b61196c86828701611875565b9350935050602061197f86828701611914565b9150509250925092565b6000819050919050565b61199c81611989565b81146119a757600080fd5b50565b6000813590506119b981611993565b92915050565b6000602082840312156119d5576119d461185c565b5b60006119e3848285016119aa565b91505092915050565b6119f5816118eb565b82525050565b6000602082019050611a1060008301846119ec565b92915050565b60008083601f840112611a2c57611a2b611866565b5b8235905067ffffffffffffffff811115611a4957611a4861186b565b5b602083019150836020820283011115611a6557611a64611870565b5b9250929050565b60008060208385031215611a8357611a8261185c565b5b600083013567ffffffffffffffff811115611aa157611aa0611861565b5b611aad85828601611a16565b92509250509250929050565b611ac281611989565b82525050565b6000602082019050611add6000830184611ab9565b92915050565b600081519050919050565b600082825260208201905092915050565b6000819050602082019050919050565b611b18816118eb565b82525050565b6000611b2a8383611b0f565b60208301905092915050565b6000602082019050919050565b6000611b4e82611ae3565b611b588185611aee565b9350611b6383611aff565b8060005b83811015611b94578151611b7b8882611b1e565b9750611b8683611b36565b925050600181019050611b67565b5085935050505092915050565b60006020820190508181036000830152611bbb8184611b43565b905092915050565b600060208284031215611bd957611bd861185c565b5b6000611be784828501611914565b91505092915050565b60008115159050919050565b611c0581611bf0565b82525050565b6000602082019050611c206000830184611bfc565b92915050565b60008060008060608587031215611c4057611c3f61185c565b5b600085013567ffffffffffffffff811115611c5e57611c5d611861565b5b611c6a87828801611a16565b94509450506020611c7d878288016119aa565b9250506040611c8e878288016119aa565b91505092959194509250565b6000611ca5826118cb565b9050919050565b611cb581611c9a565b8114611cc057600080fd5b50565b600081359050611cd281611cac565b92915050565b60008060408385031215611cef57611cee61185c565b5b6000611cfd85828601611cc3565b9250506020611d0e858286016119aa565b9150509250929050565b600082825260208201905092915050565b7f416c72656164792061726d656400000000000000000000000000000000000000600082015250565b6000611d5f600d83611d18565b9150611d6a82611d29565b602082019050919050565b60006020820190508181036000830152611d8e81611d52565b9050919050565b7f496e76616c69642064657374696e6174696f6e00000000000000000000000000600082015250565b6000611dcb601383611d18565b9150611dd682611d95565b602082019050919050565b60006020820190508181036000830152611dfa81611dbe565b9050919050565b7f546f6f206d616e79207369676e61747572657300000000000000000000000000600082015250565b6000611e37601383611d18565b9150611e4282611e01565b602082019050919050565b60006020820190508181036000830152611e6681611e2a565b9050919050565b60008160601b9050919050565b6000611e8582611e6d565b9050919050565b6000611e9782611e7a565b9050919050565b611eaf611eaa826118eb565b611e8c565b82525050565b6000819050919050565b611ed0611ecb82611989565b611eb5565b82525050565b6000611ee28286611e9e565b601482019150611ef28285611ebf565b602082019150611f028284611e9e565b601482019150819050949350505050565b7f4e487b7100000000000000000000000000000000000000000000000000000000600052604160045260246000fd5b7f4e487b7100000000000000000000000000000000000000000000000000000000600052603260045260246000fd5b600080fd5b600080fd5b600080fd5b60008083356001602003843603038112611f9d57611f9c611f71565b5b80840192508235915067ffffffffffffffff821115611fbf57611fbe611f76565b5b602083019250600182023603831315611fdb57611fda611f7b565b5b509250929050565b7f496e76616c6964207369676e6174757265000000000000000000000000000000600082015250565b6000612019601183611d18565b915061202482611fe3565b602082019050919050565b600060208201905081810360008301526120488161200c565b9050919050565b7f4475706c6963617465207369676e617475726500000000000000000000000000600082015250565b6000612085601383611d18565b91506120908261204f565b602082019050919050565b600060208201905081810360008301526120b481612078565b9050919050565b7f4e487b7100000000000000000000000000000000000000000000000000000000600052601160045260246000fd5b60006120f582611989565b91507fffffffffffffffffffffffffffffffffffffffffffffffffffffffffffffffff8203612127576121266120bb565b5b600182019050919050565b7f496e73756666696369656e742076616c6964207369676e617475726573000000600082015250565b6000612168601d83611d18565b915061217382612132565b602082019050919050565b600060208201905081810360008301526121978161215b565b9050919050565b60006060820190506121b36000830186611ab9565b6121c06020830185611ab9565b6121cd6040830184611ab9565b949350505050565b7f4e6f2045544820746f2077697468647261770000000000000000000000000000600082015250565b600061220b601283611d18565b9150612216826121d5565b602082019050919050565b6000602082019050818103600083015261223a816121fe565b9050919050565b600081905092915050565b50565b600061225c600083612241565b91506122678261224c565b600082019050919050565b600061227d8261224f565b9150819050919050565b7f5769746864726177206661696c65640000000000000000000000000000000000600082015250565b60006122bd600f83611d18565b91506122c882612287565b602082019050919050565b600060208201905081810360008301526122ec816122b0565b9050919050565b7f4e6f742061726d65640000000000000000000000000000000000000000000000600082015250565b6000612329600983611d18565b9150612334826122f3565b602082019050919050565b600060208201905081810360008301526123588161231c565b9050919050565b600061236a82611989565b915061237583611989565b925082820190508082111561238d5761238c6120bb565b5b92915050565b7f44656c6179206e6f742070617373656400000000000000000000000000000000600082015250565b60006123c9601083611d18565b91506123d482612393565b602082019050919050565b600060208201905081810360008301526123f8816123bc565b9050919050565b7f4e6f7420617574686f72697a656420746f2074726967676572207472616e736660008201527f6572000000000000000000000000000000000000000000000000000000000000602082015250565b600061245b602283611d18565b9150612466826123ff565b604082019050919050565b6000602082019050818103600083015261248a8161244e565b9050919050565b7f455448207472616e73666572206661696c656400000000000000000000000000600082015250565b60006124c7601383611d18565b91506124d282612491565b602082019050919050565b600060208201905081810360008301526124f6816124ba565b9050919050565b60008151905061250c81611993565b92915050565b6000602082840312156125285761252761185c565b5b6000612536848285016124fd565b91505092915050565b600060408201905061255460008301856119ec565b6125616020830184611ab9565b9392505050565b61257181611bf0565b811461257c57600080fd5b50565b60008151905061258e81612568565b92915050565b6000602082840312156125aa576125a961185c565b5b60006125b88482850161257f565b91505092915050565b7f496e76616c6964207468726573686f6c64000000000000000000000000000000600082015250565b60006125f7601183611d18565b9150612602826125c1565b602082019050919050565b60006020820190508181036000830152612626816125ea565b9050919050565b7f496e76616c696420616464726573730000000000000000000000000000000000600082015250565b6000612663600f83611d18565b915061266e8261262d565b602082019050919050565b6000602082019050818103600083015261269281612656565b9050919050565b7f496e73756666696369656e742062616c616e6365000000000000000000000000600082015250565b60006126cf601483611d18565b91506126da82612699565b602082019050919050565b600060208201905081810360008301526126fe816126c2565b9050919050565b7f5472616e73666572206661696c65640000000000000000000000000000000000600082015250565b600061273b600f83611d18565b915061274682612705565b602082019050919050565b6000602082019050818103600083015261276a8161272e565b9050919050565b600081905092915050565b7f19457468657265756d205369676e6564204d6573736167653a0a333200000000600082015250565b60006127b2601c83612771565b91506127bd8261277c565b601c82019050919050565b6000819050919050565b6000819050919050565b6127ed6127e8826127c8565b6127d2565b82525050565b60006127fe826127a5565b915061280a82846127dc565b60208201915081905092915050565b7f496e76616c6964207369676e6174757265206c656e6774680000000000000000600082015250565b600061284f601883611d18565b915061285a82612819565b602082019050919050565b6000602082019050818103600083015261287e81612842565b9050919050565b61288e816127c8565b82525050565b600060ff82169050919050565b6128aa81612894565b82525050565b60006080820190506128c56000830187612885565b6128d260208301866128a1565b6128df6040830185612885565b6128ec6060830184612885565b9594505050505056fea264697066735822122042acaebe3d471d27589d3e268945697619e683b6ab708d9d97424873c447458d64736f6c634300081c0033",
  "linkReferences": {},
  "deployedLinkReferences": {}
}