{
  "_format": "hh-sol-artifact-1",
  "contractName": "SuccessionManager",
  "sourceName": "contracts/SuccessionManager.sol",
  "abi": [
    {
      "inputs": [
        {
          "internalType": "address",
          "name": "initialOwner",
          "type": "address"
        },
        {
          "internalType": "address[]",
          "name": "_heirs",
          "type": "address[]"
        },
        {
          "internalType": "uint256",
          "name": "_threshold",
          "type": "uint256"
        },
        {
          "internalType": "uint256",
          "name": "_delayPeriod",
          "type": "uint256"
        }
      ],
      "stateMutability": "payable",
      "type": "constructor"
    },
    {
      "inputs": [
        {
          "internalType": "address",
          "name": "owner",
          "type": "address"
        }
      ],
      "name": "OwnableInvalidOwner",
      "type": "error"
    },
    {
      "inputs": [
        {
          "internalType": "address",
          "name": "account",
          "type": "address"
        }
      ],
      "name": "OwnableUnauthorizedAccount",
      "type": "error"
    },
    {
      "anonymous": false,
      "inputs": [
        {
          "indexed": true,
          "internalType": "address",
          "name": "destination",
          "type": "address"
        },
        {
          "indexed": false,
          "internalType": "uint256",
          "name": "timestamp",
          "type": "uint256"
        },
        {
          "indexed": false,
          "internalType": "uint256",
          "name": "delay",
          "type": "uint256"
        },
        {
          "indexed": false,
          "internalType": "uint256",
          "name": "nonce",
          "type": "uint256"
        }
      ],
      "name": "Armed",
      "type": "event"
    },
    {
      "anonymous": false,
      "inputs": [
        {
          "indexed": true,
          "internalType": "address",
          "name": "previousOwner",
          "type": "address"
        },
        {
          "indexed": true,
          "internalType": "address",
          "name": "newOwner",
          "type": "address"
        }
      ],
      "name": "OwnershipTransferred",
      "type": "event"
    },
    {
      "anonymous": false,
      "inputs": [
        {
          "indexed": true,
          "internalType": "address",
          "name": "destination",
          "type": "address"
        },
        {
          "indexed": false,
          "internalType": "uint256",
          "name": "timestamp",
          "type": "uint256"
        }
      ],
      "name": "Transferred",
      "type": "event"
    },
    {
      "inputs": [
        {
          "internalType": "bytes[]",
          "name": "signatures",
          "type": "bytes[]"
        },
        {
          "internalType": "address",
          "name": "destination",
          "type": "address"
        }
      ],
      "name": "arm",
      "outputs": [],
      "stateMutability": "nonpayable",
      "type": "function"
    },
    {
      "inputs": [],
      "name": "armTimestamp",
      "outputs": [
        {
          "internalType": "uint256",
          "name": "",
          "type": "uint256"
        }
      ],
      "stateMutability": "view",
      "type": "function"
    },
    {
      "inputs": [],
      "name": "armedDestination",
      "outputs": [
        {
          "internalType": "address",
          "name": "",
          "type": "address"
        }
      ],
      "stateMutability": "view",
      "type": "function"
    },
    {
      "inputs": [],
      "name": "cancel",
      "outputs": [],
      "stateMutability": "nonpayable",
      "type": "function"
    },
    {
      "inputs": [],
      "name": "delayPeriod",
      "outputs": [
        {
          "internalType": "uint256",
          "name": "",
          "type": "uint256"
        }
      ],
      "stateMutability": "view",
      "type": "function"
    },
    {
      "inputs": [],
      "name": "getHeirs",
      "outputs": [
        {
          "internalType": "address[]",
          "name": "",
          "type": "address[]"
        }
      ],
      "stateMutability": "view",
      "type": "function"
    },
    {
      "inputs": [
        {
          "internalType": "uint256",
          "name": "",
          "type": "uint256"
        }
      ],
      "name": "heirs",
      "outputs": [
        {
          "internalType": "address",
          "name": "",
          "type": "address"
        }
      ],
      "stateMutability": "view",
      "type": "function"
    },
    {
      "inputs": [],
      "name": "isArmed",
      "outputs": [
        {
          "internalType": "bool",
          "name": "",
          "type": "bool"
        }
      ],
      "stateMutability": "view",
      "type": "function"
    },
    {
      "inputs": [
        {
          "internalType": "address",
          "name": "",
          "type": "address"
        }
      ],
      "name": "isHeir",
      "outputs": [
        {
          "internalType": "bool",
          "name": "",
          "type": "bool"
        }
      ],
      "stateMutability": "view",
      "type": "function"
    },
    {
      "inputs": [
        {
          "internalType": "address payable",
          "name": "to",
          "type": "address"
        },
        {
          "internalType": "uint256",
          "name": "amount",
          "type": "uint256"
        }
      ],
      "name": "manualTransfer",
      "outputs": [],
      "stateMutability": "nonpayable",
      "type": "function"
    },
    {
      "inputs": [],
      "name": "nonce",
      "outputs": [
        {
          "internalType": "uint256",
          "name": "",
          "type": "uint256"
        }
      ],
      "stateMutability": "view",
      "type": "function"
    },
    {
      "inputs": [],
      "name": "owner",
      "outputs": [
        {
          "internalType": "address",
          "name": "",
          "type": "address"
        }
      ],
      "stateMutability": "view",
      "type": "function"
    },
    {
      "inputs": [],
      "name": "renounceOwnership",
      "outputs": [],
      "stateMutability": "nonpayable",
      "type": "function"
    },
    {
      "inputs": [],
      "name": "threshold",
      "outputs": [
        {
          "internalType": "uint256",
          "name": "",
          "type": "uint256"
        }
      ],
      "stateMutability": "view",
      "type": "function"
    },
    {
      "inputs": [
        {
          "internalType": "address",
          "name": "newOwner",
          "type": "address"
        }
      ],
      "name": "transferOwnership",
      "outputs": [],
      "stateMutability": "nonpayable",
      "type": "function"
    },
    {
      "inputs": [],
      "name": "triggerTransfer",
      "outputs": [],
      "stateMutability": "nonpayable",
      "type": "function"
    },
    {
      "inputs": [
        {
          "internalType": "address[]",
          "name": "_newHeirs",
          "type": "address[]"
        },
        {
          "internalType": "uint256",
          "name": "_newThreshold",
          "type": "uint256"
        }
      ],
      "name": "updateHeirs",
      "outputs": [],
      "stateMutability": "nonpayable",
      "type": "function"
    },
    {
      "inputs": [],
      "name": "withdraw",
      "outputs": [],
      "stateMutability": "nonpayable",
      "type": "function"
    },
    {
      "stateMutability": "payable",
      "type": "receive"
    }
  ],
  "bytecode": "0x60806040526040516129993803806129998339818101604052810190610025919061051e565b83600073ffffffffffffffffffffffffffffffffffffffff168173ffffffffffffffffffffffffffffffffffffffff16036100985760006040517f1e4fbdf700000000000000000000000000000000000000000000000000000000815260040161008f91906105b0565b60405180910390fd5b6100a7816101b260201b60201c565b506000821180156100b9575082518211155b6100f8576040517f08c379a00000000000000000000000000000000000000000000000000000000081526004016100ef90610628565b60405180910390fd5b826001908051906020019061010e929190610276565b50816002819055508060038190555060005b83518110156101a85760016008600086848151811061014257610141610648565b5b602002602001015173ffffffffffffffffffffffffffffffffffffffff1673ffffffffffffffffffffffffffffffffffffffff16815260200190815260200160002060006101000a81548160ff0219169083151502179055508080600101915050610120565b5050505050610677565b60008060009054906101000a900473ffffffffffffffffffffffffffffffffffffffff169050816000806101000a81548173ffffffffffffffffffffffffffffffffffffffff021916908373ffffffffffffffffffffffffffffffffffffffff1602179055508173ffffffffffffffffffffffffffffffffffffffff168173ffffffffffffffffffffffffffffffffffffffff167f8be0079c531659141344cd1fd0a4f28419497f9722a3daafe3b4186f6b6457e060405160405180910390a35050565b8280548282559060005260206000209081019282156102ef579160200282015b828111156102ee5782518260006101000a81548173ffffffffffffffffffffffffffffffffffffffff021916908373ffffffffffffffffffffffffffffffffffffffff16021790555091602001919060010190610296565b5b5090506102fc9190610300565b5090565b5b80821115610319576000816000905550600101610301565b5090565b6000604051905090565b600080fd5b600080fd5b600073ffffffffffffffffffffffffffffffffffffffff82169050919050565b600061035c82610331565b9050919050565b61036c81610351565b811461037757600080fd5b50565b60008151905061038981610363565b92915050565b600080fd5b6000601f19601f8301169050919050565b7f4e487b7100000000000000000000000000000000000000000000000000000000600052604160045260246000fd5b6103dd82610394565b810181811067ffffffffffffffff821117156103fc576103fb6103a5565b5b80604052505050565b600061040f61031d565b905061041b82826103d4565b919050565b600067ffffffffffffffff82111561043b5761043a6103a5565b5b602082029050602081019050919050565b600080fd5b600061046461045f84610420565b610405565b905080838252602082019050602084028301858111156104875761048661044c565b5b835b818110156104b0578061049c888261037a565b845260208401935050602081019050610489565b5050509392505050565b600082601f8301126104cf576104ce61038f565b5b81516104df848260208601610451565b91505092915050565b6000819050919050565b6104fb816104e8565b811461050657600080fd5b50565b600081519050610518816104f2565b92915050565b6000806000806080858703121561053857610537610327565b5b60006105468782880161037a565b945050602085015167ffffffffffffffff8111156105675761056661032c565b5b610573878288016104ba565b935050604061058487828801610509565b925050606061059587828801610509565b91505092959194509250565b6105aa81610351565b82525050565b60006020820190506105c560008301846105a1565b92915050565b600082825260208201905092915050565b7f496e76616c6964207468726573686f6c64000000000000000000000000000000600082015250565b60006106126011836105cb565b915061061d826105dc565b602082019050919050565b6000602082019050818103600083015261064181610605565b9050919050565b7f4e487b7100000000000000000000000000000000000000000000000000000000600052603260045260246000fd5b612313806106866000396000f3fe60806040526004361061010d5760003560e01c80637a3f9a1411610095578063ce2ccb1511610064578063ce2ccb151461033e578063d2f3e4d614610355578063ea8a1af014610380578063f2fde38b14610397578063f330abb6146103c057610114565b80637a3f9a14146102925780638da5cb5b146102bd578063affed0e0146102e8578063b1c94d941461031357610114565b806342cde4e8116100dc57806342cde4e8146101bf5780634eae51f4146101ea578063568ddfc6146102155780636857cb0614610252578063715018a61461027b57610114565b806303bffa7d146101195780631c0795c314610142578063209774161461017f5780633ccfd60b146101a857610114565b3661011457005b600080fd5b34801561012557600080fd5b50610140600480360381019061013b91906115a0565b6103eb565b005b34801561014e57600080fd5b5061016960048036038101906101649190611636565b610888565b6040516101769190611672565b60405180910390f35b34801561018b57600080fd5b506101a660048036038101906101a191906116e3565b6108c7565b005b3480156101b457600080fd5b506101bd610a8e565b005b3480156101cb57600080fd5b506101d4610b95565b6040516101e19190611752565b60405180910390f35b3480156101f657600080fd5b506101ff610b9b565b60405161020c919061182b565b60405180910390f35b34801561022157600080fd5b5061023c6004803603810190610237919061184d565b610c29565b6040516102499190611895565b60405180910390f35b34801561025e57600080fd5b50610279600480360381019061027491906118ee565b610c49565b005b34801561028757600080fd5b50610290610db4565b005b34801561029e57600080fd5b506102a7610dc8565b6040516102b49190611895565b60405180910390f35b3480156102c957600080fd5b506102d2610ddb565b6040516102df9190611672565b60405180910390f35b3480156102f457600080fd5b506102fd610e04565b60405161030a9190611752565b60405180910390f35b34801561031f57600080fd5b50610328610e0a565b6040516103359190611752565b60405180910390f35b34801561034a57600080fd5b50610353610e10565b005b34801561036157600080fd5b5061036a611066565b6040516103779190611672565b60405180910390f35b34801561038c57600080fd5b5061039561108c565b005b3480156103a357600080fd5b506103be60048036038101906103b9919061184d565b61114a565b005b3480156103cc57600080fd5b506103d56111d0565b6040516103e29190611752565b60405180910390f35b600760009054906101000a900460ff161561043b576040517f08c379a00000000000000000000000000000000000000000000000000000000081526004016104329061198b565b60405180910390fd5b600073ffffffffffffffffffffffffffffffffffffffff168173ffffffffffffffffffffffffffffffffffffffff16036104aa576040517f08c379a00000000000000000000000000000000000000000000000000000000081526004016104a1906119f7565b60405180910390fd5b600030600654836040516020016104c393929190611a80565b60405160208183030381529060405280519060200120905060006104e6826111d6565b905060008585905067ffffffffffffffff81111561050757610506611abd565b5b6040519080825280602002602001820160405280156105355781602001602082028036833780820191505090505b5090506000805b878790508110156107665760006105ba858a8a858181106105605761055f611aec565b5b90506020028101906105729190611b2a565b8080601f016020809104026020016040519081016040528093929190818152602001838380828437600081840152601f19601f82011690508083019250505050505050611206565b9050600860008273ffffffffffffffffffffffffffffffffffffffff1673ffffffffffffffffffffffffffffffffffffffff16815260200190815260200160002060009054906101000a900460ff16610648576040517f08c379a000000000000000000000000000000000000000000000000000000000815260040161063f90611bd9565b60405180910390fd5b60006001905060005b848110156106bc578273ffffffffffffffffffffffffffffffffffffffff1686828151811061068357610682611aec565b5b602002602001015173ffffffffffffffffffffffffffffffffffffffff16036106af57600091506106bc565b8080600101915050610651565b50806106fd576040517f08c379a00000000000000000000000000000000000000000000000000000000081526004016106f490611c45565b60405180910390fd5b8185858061070a90611c94565b96508151811061071d5761071c611aec565b5b602002602001019073ffffffffffffffffffffffffffffffffffffffff16908173ffffffffffffffffffffffffffffffffffffffff16815250505050808060010191505061053c565b506002548110156107ac576040517f08c379a00000000000000000000000000000000000000000000000000000000081526004016107a390611d28565b60405180910390fd5b84600460006101000a81548173ffffffffffffffffffffffffffffffffffffffff021916908373ffffffffffffffffffffffffffffffffffffffff160217905550426005819055506001600760006101000a81548160ff0219169083151502179055508473ffffffffffffffffffffffffffffffffffffffff167ff3253ce410358e4a4773b3dadc52a1efd9cdbcb57d761dc991e790209aee388760055460035460065460405161085f93929190611d48565b60405180910390a26006600081548092919061087a90611c94565b919050555050505050505050565b6001818154811061089857600080fd5b906000526020600020016000915054906101000a900473ffffffffffffffffffffffffffffffffffffffff1681565b6108cf6112c3565b6000811180156108e25750828290508111155b610921576040517f08c379a000000000000000000000000000000000000000000000000000000000815260040161091890611dcb565b60405180910390fd5b60005b6001805490508110156109d4576000600860006001848154811061094b5761094a611aec565b5b9060005260206000200160009054906101000a900473ffffffffffffffffffffffffffffffffffffffff1673ffffffffffffffffffffffffffffffffffffffff1673ffffffffffffffffffffffffffffffffffffffff16815260200190815260200160002060006101000a81548160ff0219169083151502179055508080600101915050610924565b508282600191906109e6929190611416565b508060028190555060005b83839050811015610a8857600160086000868685818110610a1557610a14611aec565b5b9050602002016020810190610a2a919061184d565b73ffffffffffffffffffffffffffffffffffffffff1673ffffffffffffffffffffffffffffffffffffffff16815260200190815260200160002060006101000a81548160ff02191690831515021790555080806001019150506109f1565b50505050565b610a966112c3565b600047905060008111610ade576040517f08c379a0000000000000000000000000000000000000000000000000000000008152600401610ad590611e37565b60405180910390fd5b6000610ae8610ddb565b73ffffffffffffffffffffffffffffffffffffffff1682604051610b0b90611e88565b60006040518083038185875af1925050503d8060008114610b48576040519150601f19603f3d011682016040523d82523d6000602084013e610b4d565b606091505b5050905080610b91576040517f08c379a0000000000000000000000000000000000000000000000000000000008152600401610b8890611ee9565b60405180910390fd5b5050565b60025481565b60606001805480602002602001604051908101604052809291908181526020018280548015610c1f57602002820191906000526020600020905b8160009054906101000a900473ffffffffffffffffffffffffffffffffffffffff1673ffffffffffffffffffffffffffffffffffffffff1681526020019060010190808311610bd5575b5050505050905090565b60086020528060005260406000206000915054906101000a900460ff1681565b610c516112c3565b600073ffffffffffffffffffffffffffffffffffffffff168273ffffffffffffffffffffffffffffffffffffffff1603610cc0576040517f08c379a0000000000000000000000000000000000000000000000000000000008152600401610cb790611f55565b60405180910390fd5b47811115610d03576040517f08c379a0000000000000000000000000000000000000000000000000000000008152600401610cfa90611fc1565b60405180910390fd5b60008273ffffffffffffffffffffffffffffffffffffffff1682604051610d2990611e88565b60006040518083038185875af1925050503d8060008114610d66576040519150601f19603f3d011682016040523d82523d6000602084013e610d6b565b606091505b5050905080610daf576040517f08c379a0000000000000000000000000000000000000000000000000000000008152600401610da69061202d565b60405180910390fd5b505050565b610dbc6112c3565b610dc6600061134a565b565b600760009054906101000a900460ff1681565b60008060009054906101000a900473ffffffffffffffffffffffffffffffffffffffff16905090565b60065481565b60035481565b600760009054906101000a900460ff16610e5f576040517f08c379a0000000000000000000000000000000000000000000000000000000008152600401610e5690612099565b60405180910390fd5b600354600554610e6f91906120b9565b421015610eb1576040517f08c379a0000000000000000000000000000000000000000000000000000000008152600401610ea890612139565b60405180910390fd5b6000600460009054906101000a900473ffffffffffffffffffffffffffffffffffffffff1690506000600760006101000a81548160ff0219169083151502179055506000600460006101000a81548173ffffffffffffffffffffffffffffffffffffffff021916908373ffffffffffffffffffffffffffffffffffffffff160217905550600060058190555060008173ffffffffffffffffffffffffffffffffffffffff1647604051610f6390611e88565b60006040518083038185875af1925050503d8060008114610fa0576040519150601f19603f3d011682016040523d82523d6000602084013e610fa5565b606091505b5050905080610fe9576040517f08c379a0000000000000000000000000000000000000000000000000000000008152600401610fe09061202d565b60405180910390fd5b42600581905550600460009054906101000a900473ffffffffffffffffffffffffffffffffffffffff1673ffffffffffffffffffffffffffffffffffffffff167fe6d858f14d755446648a6e0c8ab8b5a0f58ccc7920d4c910b0454e4dcd869af060055460405161105a9190611752565b60405180910390a25050565b600460009054906101000a900473ffffffffffffffffffffffffffffffffffffffff1681565b6110946112c3565b600760009054906101000a900460ff166110e3576040517f08c379a00000000000000000000000000000000000000000000000000000000081526004016110da90612099565b60405180910390fd5b6000600760006101000a81548160ff0219169083151502179055506000600460006101000a81548173ffffffffffffffffffffffffffffffffffffffff021916908373ffffffffffffffffffffffffffffffffffffffff1602179055506000600581905550565b6111526112c3565b600073ffffffffffffffffffffffffffffffffffffffff168173ffffffffffffffffffffffffffffffffffffffff16036111c45760006040517f1e4fbdf70000000000000000000000000000000000000000000000000000000081526004016111bb9190611672565b60405180910390fd5b6111cd8161134a565b50565b60055481565b6000816040516020016111e991906121db565b604051602081830303815290604052805190602001209050919050565b6000604182511461124c576040517f08c379a00000000000000000000000000000000000000000000000000000000081526004016112439061224d565b60405180910390fd5b60008060006020850151925060408501519150606085015160001a90506001868285856040516000815260200160405260405161128c9493929190612298565b6020604051602081039080840390855afa1580156112ae573d6000803e3d6000fd5b50505060206040510351935050505092915050565b6112cb61140e565b73ffffffffffffffffffffffffffffffffffffffff166112e9610ddb565b73ffffffffffffffffffffffffffffffffffffffff16146113485761130c61140e565b6040517f118cdaa700000000000000000000000000000000000000000000000000000000815260040161133f9190611672565b60405180910390fd5b565b60008060009054906101000a900473ffffffffffffffffffffffffffffffffffffffff169050816000806101000a81548173ffffffffffffffffffffffffffffffffffffffff021916908373ffffffffffffffffffffffffffffffffffffffff1602179055508173ffffffffffffffffffffffffffffffffffffffff168173ffffffffffffffffffffffffffffffffffffffff167f8be0079c531659141344cd1fd0a4f28419497f9722a3daafe3b4186f6b6457e060405160405180910390a35050565b600033905090565b8280548282559060005260206000209081019282156114a5579160200282015b828111156114a457823573ffffffffffffffffffffffffffffffffffffffff168260006101000a81548173ffffffffffffffffffffffffffffffffffffffff021916908373ffffffffffffffffffffffffffffffffffffffff16021790555091602001919060010190611436565b5b5090506114b291906114b6565b5090565b5b808211156114cf5760008160009055506001016114b7565b5090565b600080fd5b600080fd5b600080fd5b600080fd5b600080fd5b60008083601f840112611502576115016114dd565b5b8235905067ffffffffffffffff81111561151f5761151e6114e2565b5b60208301915083602082028301111561153b5761153a6114e7565b5b9250929050565b600073ffffffffffffffffffffffffffffffffffffffff82169050919050565b600061156d82611542565b9050919050565b61157d81611562565b811461158857600080fd5b50565b60008135905061159a81611574565b92915050565b6000806000604084860312156115b9576115b86114d3565b5b600084013567ffffffffffffffff8111156115d7576115d66114d8565b5b6115e3868287016114ec565b935093505060206115f68682870161158b565b9150509250925092565b6000819050919050565b61161381611600565b811461161e57600080fd5b50565b6000813590506116308161160a565b92915050565b60006020828403121561164c5761164b6114d3565b5b600061165a84828501611621565b91505092915050565b61166c81611562565b82525050565b60006020820190506116876000830184611663565b92915050565b60008083601f8401126116a3576116a26114dd565b5b8235905067ffffffffffffffff8111156116c0576116bf6114e2565b5b6020830191508360208202830111156116dc576116db6114e7565b5b9250929050565b6000806000604084860312156116fc576116fb6114d3565b5b600084013567ffffffffffffffff81111561171a576117196114d8565b5b6117268682870161168d565b9350935050602061173986828701611621565b9150509250925092565b61174c81611600565b82525050565b60006020820190506117676000830184611743565b92915050565b600081519050919050565b600082825260208201905092915050565b6000819050602082019050919050565b6117a281611562565b82525050565b60006117b48383611799565b60208301905092915050565b6000602082019050919050565b60006117d88261176d565b6117e28185611778565b93506117ed83611789565b8060005b8381101561181e57815161180588826117a8565b9750611810836117c0565b9250506001810190506117f1565b5085935050505092915050565b6000602082019050818103600083015261184581846117cd565b905092915050565b600060208284031215611863576118626114d3565b5b60006118718482850161158b565b91505092915050565b60008115159050919050565b61188f8161187a565b82525050565b60006020820190506118aa6000830184611886565b92915050565b60006118bb82611542565b9050919050565b6118cb816118b0565b81146118d657600080fd5b50565b6000813590506118e8816118c2565b92915050565b60008060408385031215611905576119046114d3565b5b6000611913858286016118d9565b925050602061192485828601611621565b9150509250929050565b600082825260208201905092915050565b7f416c72656164792061726d656400000000000000000000000000000000000000600082015250565b6000611975600d8361192e565b91506119808261193f565b602082019050919050565b600060208201905081810360008301526119a481611968565b9050919050565b7f496e76616c69642064657374696e6174696f6e00000000000000000000000000600082015250565b60006119e160138361192e565b91506119ec826119ab565b602082019050919050565b60006020820190508181036000830152611a10816119d4565b9050919050565b60008160601b9050919050565b6000611a2f82611a17565b9050919050565b6000611a4182611a24565b9050919050565b611a59611a5482611562565b611a36565b82525050565b6000819050919050565b611a7a611a7582611600565b611a5f565b82525050565b6000611a8c8286611a48565b601482019150611a9c8285611a69565b602082019150611aac8284611a48565b601482019150819050949350505050565b7f4e487b7100000000000000000000000000000000000000000000000000000000600052604160045260246000fd5b7f4e487b7100000000000000000000000000000000000000000000000000000000600052603260045260246000fd5b600080fd5b600080fd5b600080fd5b60008083356001602003843603038112611b4757611b46611b1b565b5b80840192508235915067ffffffffffffffff821115611b6957611b68611b20565b5b602083019250600182023603831315611b8557611b84611b25565b5b509250929050565b7f496e76616c6964207369676e6174757265000000000000000000000000000000600082015250565b6000611bc360118361192e565b9150611bce82611b8d565b602082019050919050565b60006020820190508181036000830152611bf281611bb6565b9050919050565b7f4475706c6963617465207369676e617475726500000000000000000000000000600082015250565b6000611c2f60138361192e565b9150611c3a82611bf9565b602082019050919050565b60006020820190508181036000830152611c5e81611c22565b9050919050565b7f4e487b7100000000000000000000000000000000000000000000000000000000600052601160045260246000fd5b6000611c9f82611600565b91507fffffffffffffffffffffffffffffffffffffffffffffffffffffffffffffffff8203611cd157611cd0611c65565b5b600182019050919050565b7f496e73756666696369656e742076616c6964207369676e617475726573000000600082015250565b6000611d12601d8361192e565b9150611d1d82611cdc565b602082019050919050565b60006020820190508181036000830152611d4181611d05565b9050919050565b6000606082019050611d5d6000830186611743565b611d6a6020830185611743565b611d776040830184611743565b949350505050565b7f496e76616c6964207468726573686f6c64000000000000000000000000000000600082015250565b6000611db560118361192e565b9150611dc082611d7f565b602082019050919050565b60006020820190508181036000830152611de481611da8565b9050919050565b7f4e6f2045544820746f2077697468647261770000000000000000000000000000600082015250565b6000611e2160128361192e565b9150611e2c82611deb565b602082019050919050565b60006020820190508181036000830152611e5081611e14565b9050919050565b600081905092915050565b50565b6000611e72600083611e57565b9150611e7d82611e62565b600082019050919050565b6000611e9382611e65565b9150819050919050565b7f5769746864726177206661696c65640000000000000000000000000000000000600082015250565b6000611ed3600f8361192e565b9150611ede82611e9d565b602082019050919050565b60006020820190508181036000830152611f0281611ec6565b9050919050565b7f496e76616c696420616464726573730000000000000000000000000000000000600082015250565b6000611f3f600f8361192e565b9150611f4a82611f09565b602082019050919050565b60006020820190508181036000830152611f6e81611f32565b9050919050565b7f496e73756666696369656e742062616c616e6365000000000000000000000000600082015250565b6000611fab60148361192e565b9150611fb682611f75565b602082019050919050565b60006020820190508181036000830152611fda81611f9e565b9050919050565b7f5472616e73666572206661696c65640000000000000000000000000000000000600082015250565b6000612017600f8361192e565b915061202282611fe1565b602082019050919050565b600060208201905081810360008301526120468161200a565b9050919050565b7f4e6f742061726d65640000000000000000000000000000000000000000000000600082015250565b600061208360098361192e565b915061208e8261204d565b602082019050919050565b600060208201905081810360008301526120b281612076565b9050919050565b60006120c482611600565b91506120cf83611600565b92508282019050808211156120e7576120e6611c65565b5b92915050565b7f44656c6179206e6f742070617373656400000000000000000000000000000000600082015250565b600061212360108361192e565b915061212e826120ed565b602082019050919050565b6000602082019050818103600083015261215281612116565b9050919050565b600081905092915050565b7f19457468657265756d205369676e6564204d6573736167653a0a333200000000600082015250565b600061219a601c83612159565b91506121a582612164565b601c82019050919050565b6000819050919050565b6000819050919050565b6121d56121d0826121b0565b6121ba565b82525050565b60006121e68261218d565b91506121f282846121c4565b60208201915081905092915050565b7f496e76616c6964207369676e6174757265206c656e6774680000000000000000600082015250565b600061223760188361192e565b915061224282612201565b602082019050919050565b600060208201905081810360008301526122668161222a565b9050919050565b612276816121b0565b82525050565b600060ff82169050919050565b6122928161227c565b82525050565b60006080820190506122ad600083018761226d565b6122ba6020830186612289565b6122c7604083018561226d565b6122d4606083018461226d565b9594505050505056fea26469706673582212203c38dceeeef56ebc9a7c3d3bcc0650ed85812294ac0653be88334fa66a4cda0c64736f6c634300081c0033",
  "linkReferences": {},
  "deployedLinkReferences": {}
}