{
  "_format": "hh-sol-artifact-1",
  "contractName": "SuccessionManager",
  "sourceName": "contracts/SuccessionManager.sol",
  "abi": [
    {
      "inputs": [
        {
          "internalType": "address",
          "name": "_owner",
          "type": "address"
        },
        {
          "internalType": "address[]",
          "name": "_heirs",
          "type": "address[]"
        },
        {
          "internalType": "uint256",
          "name": "_threshold",
          "type": "uint256"
        },
        {
          "internalType": "uint256",
          "name": "_delayPeriod",
          "type": "uint256"
        }
      ],
      "stateMutability": "payable",
      "type": "constructor"
    },
    {
      "inputs": [
        {
          "internalType": "address",
          "name": "owner",
          "type": "address"
        }
      ],
      "name": "OwnableInvalidOwner",
      "type": "error"
    },
    {
      "inputs": [
        {
          "internalType": "address",
          "name": "account",
          "type": "address"
        }
      ],
      "name": "OwnableUnauthorizedAccount",
      "type": "error"
    },
    {
      "anonymous": false,
      "inputs": [
        {
          "indexed": true,
          "internalType": "address",
          "name": "destination",
          "type": "address"
        },
        {
          "indexed": false,
          "internalType": "uint256",
          "name": "timestamp",
          "type": "uint256"
        },
        {
          "indexed": false,
          "internalType": "uint256",
          "name": "delay",
          "type": "uint256"
        },
        {
          "indexed": false,
          "internalType": "uint256",
          "name": "nonce",
          "type": "uint256"
        }
      ],
      "name": "Armed",
      "type": "event"
    },
    {
      "anonymous": false,
      "inputs": [
        {
          "indexed": true,
          "internalType": "address",
          "name": "previousOwner",
          "type": "address"
        },
        {
          "indexed": true,
          "internalType": "address",
          "name": "newOwner",
          "type": "address"
        }
      ],
      "name": "OwnershipTransferred",
      "type": "event"
    },
    {
      "anonymous": false,
      "inputs": [
        {
          "indexed": true,
          "internalType": "address",
          "name": "destination",
          "type": "address"
        },
        {
          "indexed": false,
          "internalType": "uint256",
          "name": "timestamp",
          "type": "uint256"
        }
      ],
      "name": "Transferred",
      "type": "event"
    },
    {
      "inputs": [
        {
          "internalType": "bytes[]",
          "name": "signatures",
          "type": "bytes[]"
        },
        {
          "internalType": "address",
          "name": "destination",
          "type": "address"
        }
      ],
      "name": "arm",
      "outputs": [],
      "stateMutability": "nonpayable",
      "type": "function"
    },
    {
      "inputs": [],
      "name": "armTimestamp",
      "outputs": [
        {
          "internalType": "uint256",
          "name": "",
          "type": "uint256"
        }
      ],
      "stateMutability": "view",
      "type": "function"
    },
    {
      "inputs": [],
      "name": "armedDestination",
      "outputs": [
        {
          "internalType": "address",
          "name": "",
          "type": "address"
        }
      ],
      "stateMutability": "view",
      "type": "function"
    },
    {
      "inputs": [],
      "name": "cancel",
      "outputs": [],
      "stateMutability": "nonpayable",
      "type": "function"
    },
    {
      "inputs": [],
      "name": "delayPeriod",
      "outputs": [
        {
          "internalType": "uint256",
          "name": "",
          "type": "uint256"
        }
      ],
      "stateMutability": "view",
      "type": "function"
    },
    {
      "inputs": [],
      "name": "getHeirs",
      "outputs": [
        {
          "internalType": "address[]",
          "name": "",
          "type": "address[]"
        }
      ],
      "stateMutability": "view",
      "type": "function"
    },
    {
      "inputs": [],
      "name": "getHeirsCount",
      "outputs": [
        {
          "internalType": "uint256",
          "name": "",
          "type": "uint256"
        }
      ],
      "stateMutability": "view",
      "type": "function"
    },
    {
      "inputs": [],
      "name": "getOwner",
      "outputs": [
        {
          "internalType": "address",
          "name": "",
          "type": "address"
        }
      ],
      "stateMutability": "view",
      "type": "function"
    },
    {
      "inputs": [
        {
          "internalType": "uint256",
          "name": "",
          "type": "uint256"
        }
      ],
      "name": "heirs",
      "outputs": [
        {
          "internalType": "address",
          "name": "",
          "type": "address"
        }
      ],
      "stateMutability": "view",
      "type": "function"
    },
    {
      "inputs": [],
      "name": "isArmed",
      "outputs": [
        {
          "internalType": "bool",
          "name": "",
          "type": "bool"
        }
      ],
      "stateMutability": "view",
      "type": "function"
    },
    {
      "inputs": [
        {
          "internalType": "address",
          "name": "",
          "type": "address"
        }
      ],
      "name": "isHeir",
      "outputs": [
        {
          "internalType": "bool",
          "name": "",
          "type": "bool"
        }
      ],
      "stateMutability": "view",
      "type": "function"
    },
    {
      "inputs": [],
      "name": "nonce",
      "outputs": [
        {
          "internalType": "uint256",
          "name": "",
          "type": "uint256"
        }
      ],
      "stateMutability": "view",
      "type": "function"
    },
    {
      "inputs": [],
      "name": "owner",
      "outputs": [
        {
          "internalType": "address",
          "name": "",
          "type": "address"
        }
      ],
      "stateMutability": "view",
      "type": "function"
    },
    {
      "inputs": [
        {
          "internalType": "address payable",
          "name": "to",
          "type": "address"
        },
        {
          "internalType": "uint256",
          "name": "amount",
          "type": "uint256"
        }
      ],
      "name": "ownerTransfer",
      "outputs": [],
      "stateMutability": "nonpayable",
      "type": "function"
    },
    {
      "inputs": [],
      "name": "renounceOwnership",
      "outputs": [],
      "stateMutability": "nonpayable",
      "type": "function"
    },
    {
      "inputs": [],
      "name": "threshold",
      "outputs": [
        {
          "internalType": "uint256",
          "name": "",
          "type": "uint256"
        }
      ],
      "stateMutability": "view",
      "type": "function"
    },
    {
      "inputs": [
        {
          "internalType": "address",
          "name": "newOwner",
          "type": "address"
        }
      ],
      "name": "transferOwnership",
      "outputs": [],
      "stateMutability": "nonpayable",
      "type": "function"
    },
    {
      "inputs": [],
      "name": "triggerTransfer",
      "outputs": [],
      "stateMutability": "nonpayable",
      "type": "function"
    },
    {
      "inputs": [
        {
          "internalType": "address[]",
          "name": "_newHeirs",
          "type": "address[]"
        },
        {
          "internalType": "uint256",
          "name": "_newThreshold",
          "type": "uint256"
        },
        {
          "internalType": "uint256",
          "name": "_delayPeriod",
          "type": "uint256"
        }
      ],
      "name": "updateHeirs",
      "outputs": [],
      "stateMutability": "nonpayable",
      "type": "function"
    },
    {
      "inputs": [],
      "name": "withdraw",
      "outputs": [],
      "stateMutability": "nonpayable",
      "type": "function"
    },
    {
      "stateMutability": "payable",
      "type": "receive"
    }
  ],
  "bytecode": "0x6080604052604051612a3d380380612a3d8339818101604052810190610025919061051e565b83600073ffffffffffffffffffffffffffffffffffffffff168173ffffffffffffffffffffffffffffffffffffffff16036100985760006040517f1e4fbdf700000000000000000000000000000000000000000000000000000000815260040161008f91906105b0565b60405180910390fd5b6100a7816101b260201b60201c565b506000821180156100b9575082518211155b6100f8576040517f08c379a00000000000000000000000000000000000000000000000000000000081526004016100ef90610628565b60405180910390fd5b826001908051906020019061010e929190610276565b50816002819055508060038190555060005b83518110156101a85760016008600086848151811061014257610141610648565b5b602002602001015173ffffffffffffffffffffffffffffffffffffffff1673ffffffffffffffffffffffffffffffffffffffff16815260200190815260200160002060006101000a81548160ff0219169083151502179055508080600101915050610120565b5050505050610677565b60008060009054906101000a900473ffffffffffffffffffffffffffffffffffffffff169050816000806101000a81548173ffffffffffffffffffffffffffffffffffffffff021916908373ffffffffffffffffffffffffffffffffffffffff1602179055508173ffffffffffffffffffffffffffffffffffffffff168173ffffffffffffffffffffffffffffffffffffffff167f8be0079c531659141344cd1fd0a4f28419497f9722a3daafe3b4186f6b6457e060405160405180910390a35050565b8280548282559060005260206000209081019282156102ef579160200282015b828111156102ee5782518260006101000a81548173ffffffffffffffffffffffffffffffffffffffff021916908373ffffffffffffffffffffffffffffffffffffffff16021790555091602001919060010190610296565b5b5090506102fc9190610300565b5090565b5b80821115610319576000816000905550600101610301565b5090565b6000604051905090565b600080fd5b600080fd5b600073ffffffffffffffffffffffffffffffffffffffff82169050919050565b600061035c82610331565b9050919050565b61036c81610351565b811461037757600080fd5b50565b60008151905061038981610363565b92915050565b600080fd5b6000601f19601f8301169050919050565b7f4e487b7100000000000000000000000000000000000000000000000000000000600052604160045260246000fd5b6103dd82610394565b810181811067ffffffffffffffff821117156103fc576103fb6103a5565b5b80604052505050565b600061040f61031d565b905061041b82826103d4565b919050565b600067ffffffffffffffff82111561043b5761043a6103a5565b5b602082029050602081019050919050565b600080fd5b600061046461045f84610420565b610405565b905080838252602082019050602084028301858111156104875761048661044c565b5b835b818110156104b0578061049c888261037a565b845260208401935050602081019050610489565b5050509392505050565b600082601f8301126104cf576104ce61038f565b5b81516104df848260208601610451565b91505092915050565b6000819050919050565b6104fb816104e8565b811461050657600080fd5b50565b600081519050610518816104f2565b92915050565b6000806000806080858703121561053857610537610327565b5b60006105468782880161037a565b945050602085015167ffffffffffffffff8111156105675761056661032c565b5b610573878288016104ba565b935050604061058487828801610509565b925050606061059587828801610509565b91505092959194509250565b6105aa81610351565b82525050565b60006020820190506105c560008301846105a1565b92915050565b600082825260208201905092915050565b7f496e76616c6964207468726573686f6c64000000000000000000000000000000600082015250565b60006106126011836105cb565b915061061d826105dc565b602082019050919050565b6000602082019050818103600083015261064181610605565b9050919050565b7f4e487b7100000000000000000000000000000000000000000000000000000000600052603260045260246000fd5b6123b7806106866000396000f3fe6080604052600436106101235760003560e01c8063893d20e8116100a0578063d2f3e4d611610064578063d2f3e4d614610398578063d85c8966146103c3578063ea8a1af0146103ec578063f2fde38b14610403578063f330abb61461042c5761012a565b8063893d20e8146102d55780638da5cb5b14610300578063affed0e01461032b578063b1c94d9414610356578063ce2ccb15146103815761012a565b8063568ddfc6116100e7578063568ddfc614610202578063598f6a161461023f578063701416d01461026a578063715018a6146102935780637a3f9a14146102aa5761012a565b806303bffa7d1461012f5780631c0795c3146101585780633ccfd60b1461019557806342cde4e8146101ac5780634eae51f4146101d75761012a565b3661012a57005b600080fd5b34801561013b57600080fd5b5061015660048036038101906101519190611630565b610457565b005b34801561016457600080fd5b5061017f600480360381019061017a91906116c6565b6108f4565b60405161018c9190611702565b60405180910390f35b3480156101a157600080fd5b506101aa610933565b005b3480156101b857600080fd5b506101c1610a3a565b6040516101ce919061172c565b60405180910390f35b3480156101e357600080fd5b506101ec610a40565b6040516101f99190611805565b60405180910390f35b34801561020e57600080fd5b5061022960048036038101906102249190611827565b610ace565b604051610236919061186f565b60405180910390f35b34801561024b57600080fd5b50610254610aee565b604051610261919061172c565b60405180910390f35b34801561027657600080fd5b50610291600480360381019061028c91906118e0565b610afb565b005b34801561029f57600080fd5b506102a8610cca565b005b3480156102b657600080fd5b506102bf610cde565b6040516102cc919061186f565b60405180910390f35b3480156102e157600080fd5b506102ea610cf1565b6040516102f79190611702565b60405180910390f35b34801561030c57600080fd5b50610315610d00565b6040516103229190611702565b60405180910390f35b34801561033757600080fd5b50610340610d29565b60405161034d919061172c565b60405180910390f35b34801561036257600080fd5b5061036b610d2f565b604051610378919061172c565b60405180910390f35b34801561038d57600080fd5b50610396610d35565b005b3480156103a457600080fd5b506103ad610f8b565b6040516103ba9190611702565b60405180910390f35b3480156103cf57600080fd5b506103ea60048036038101906103e59190611992565b610fb1565b005b3480156103f857600080fd5b5061040161111c565b005b34801561040f57600080fd5b5061042a60048036038101906104259190611827565b6111da565b005b34801561043857600080fd5b50610441611260565b60405161044e919061172c565b60405180910390f35b600760009054906101000a900460ff16156104a7576040517f08c379a000000000000000000000000000000000000000000000000000000000815260040161049e90611a2f565b60405180910390fd5b600073ffffffffffffffffffffffffffffffffffffffff168173ffffffffffffffffffffffffffffffffffffffff1603610516576040517f08c379a000000000000000000000000000000000000000000000000000000000815260040161050d90611a9b565b60405180910390fd5b6000306006548360405160200161052f93929190611b24565b604051602081830303815290604052805190602001209050600061055282611266565b905060008585905067ffffffffffffffff81111561057357610572611b61565b5b6040519080825280602002602001820160405280156105a15781602001602082028036833780820191505090505b5090506000805b878790508110156107d2576000610626858a8a858181106105cc576105cb611b90565b5b90506020028101906105de9190611bce565b8080601f016020809104026020016040519081016040528093929190818152602001838380828437600081840152601f19601f82011690508083019250505050505050611296565b9050600860008273ffffffffffffffffffffffffffffffffffffffff1673ffffffffffffffffffffffffffffffffffffffff16815260200190815260200160002060009054906101000a900460ff166106b4576040517f08c379a00000000000000000000000000000000000000000000000000000000081526004016106ab90611c7d565b60405180910390fd5b60006001905060005b84811015610728578273ffffffffffffffffffffffffffffffffffffffff168682815181106106ef576106ee611b90565b5b602002602001015173ffffffffffffffffffffffffffffffffffffffff160361071b5760009150610728565b80806001019150506106bd565b5080610769576040517f08c379a000000000000000000000000000000000000000000000000000000000815260040161076090611ce9565b60405180910390fd5b8185858061077690611d38565b96508151811061078957610788611b90565b5b602002602001019073ffffffffffffffffffffffffffffffffffffffff16908173ffffffffffffffffffffffffffffffffffffffff1681525050505080806001019150506105a8565b50600254811015610818576040517f08c379a000000000000000000000000000000000000000000000000000000000815260040161080f90611dcc565b60405180910390fd5b84600460006101000a81548173ffffffffffffffffffffffffffffffffffffffff021916908373ffffffffffffffffffffffffffffffffffffffff160217905550426005819055506001600760006101000a81548160ff0219169083151502179055508473ffffffffffffffffffffffffffffffffffffffff167ff3253ce410358e4a4773b3dadc52a1efd9cdbcb57d761dc991e790209aee38876005546003546006546040516108cb93929190611dec565b60405180910390a2600660008154809291906108e690611d38565b919050555050505050505050565b6001818154811061090457600080fd5b906000526020600020016000915054906101000a900473ffffffffffffffffffffffffffffffffffffffff1681565b61093b611353565b600047905060008111610983576040517f08c379a000000000000000000000000000000000000000000000000000000000815260040161097a90611e6f565b60405180910390fd5b600061098d610d00565b73ffffffffffffffffffffffffffffffffffffffff16826040516109b090611ec0565b60006040518083038185875af1925050503d80600081146109ed576040519150601f19603f3d011682016040523d82523d6000602084013e6109f2565b606091505b5050905080610a36576040517f08c379a0000000000000000000000000000000000000000000000000000000008152600401610a2d90611f21565b60405180910390fd5b5050565b60025481565b60606001805480602002602001604051908101604052809291908181526020018280548015610ac457602002820191906000526020600020905b8160009054906101000a900473ffffffffffffffffffffffffffffffffffffffff1673ffffffffffffffffffffffffffffffffffffffff1681526020019060010190808311610a7a575b5050505050905090565b60086020528060005260406000206000915054906101000a900460ff1681565b6000600180549050905090565b610b03611353565b600082118015610b165750838390508211155b610b55576040517f08c379a0000000000000000000000000000000000000000000000000000000008152600401610b4c90611f8d565b60405180910390fd5b60005b600180549050811015610c085760006008600060018481548110610b7f57610b7e611b90565b5b9060005260206000200160009054906101000a900473ffffffffffffffffffffffffffffffffffffffff1673ffffffffffffffffffffffffffffffffffffffff1673ffffffffffffffffffffffffffffffffffffffff16815260200190815260200160002060006101000a81548160ff0219169083151502179055508080600101915050610b58565b50838360019190610c1a9291906114a6565b50816002819055508060038190555060005b84849050811015610cc357600160086000878785818110610c5057610c4f611b90565b5b9050602002016020810190610c659190611827565b73ffffffffffffffffffffffffffffffffffffffff1673ffffffffffffffffffffffffffffffffffffffff16815260200190815260200160002060006101000a81548160ff0219169083151502179055508080600101915050610c2c565b5050505050565b610cd2611353565b610cdc60006113da565b565b600760009054906101000a900460ff1681565b6000610cfb610d00565b905090565b60008060009054906101000a900473ffffffffffffffffffffffffffffffffffffffff16905090565b60065481565b60035481565b600760009054906101000a900460ff16610d84576040517f08c379a0000000000000000000000000000000000000000000000000000000008152600401610d7b90611ff9565b60405180910390fd5b600354600554610d949190612019565b421015610dd6576040517f08c379a0000000000000000000000000000000000000000000000000000000008152600401610dcd90612099565b60405180910390fd5b6000600460009054906101000a900473ffffffffffffffffffffffffffffffffffffffff1690506000600760006101000a81548160ff0219169083151502179055506000600460006101000a81548173ffffffffffffffffffffffffffffffffffffffff021916908373ffffffffffffffffffffffffffffffffffffffff160217905550600060058190555060008173ffffffffffffffffffffffffffffffffffffffff1647604051610e8890611ec0565b60006040518083038185875af1925050503d8060008114610ec5576040519150601f19603f3d011682016040523d82523d6000602084013e610eca565b606091505b5050905080610f0e576040517f08c379a0000000000000000000000000000000000000000000000000000000008152600401610f0590612105565b60405180910390fd5b42600581905550600460009054906101000a900473ffffffffffffffffffffffffffffffffffffffff1673ffffffffffffffffffffffffffffffffffffffff167fe6d858f14d755446648a6e0c8ab8b5a0f58ccc7920d4c910b0454e4dcd869af0600554604051610f7f919061172c565b60405180910390a25050565b600460009054906101000a900473ffffffffffffffffffffffffffffffffffffffff1681565b610fb9611353565b600073ffffffffffffffffffffffffffffffffffffffff168273ffffffffffffffffffffffffffffffffffffffff1603611028576040517f08c379a000000000000000000000000000000000000000000000000000000000815260040161101f90612171565b60405180910390fd5b4781111561106b576040517f08c379a0000000000000000000000000000000000000000000000000000000008152600401611062906121dd565b60405180910390fd5b60008273ffffffffffffffffffffffffffffffffffffffff168260405161109190611ec0565b60006040518083038185875af1925050503d80600081146110ce576040519150601f19603f3d011682016040523d82523d6000602084013e6110d3565b606091505b5050905080611117576040517f08c379a000000000000000000000000000000000000000000000000000000000815260040161110e90612105565b60405180910390fd5b505050565b611124611353565b600760009054906101000a900460ff16611173576040517f08c379a000000000000000000000000000000000000000000000000000000000815260040161116a90611ff9565b60405180910390fd5b6000600760006101000a81548160ff0219169083151502179055506000600460006101000a81548173ffffffffffffffffffffffffffffffffffffffff021916908373ffffffffffffffffffffffffffffffffffffffff1602179055506000600581905550565b6111e2611353565b600073ffffffffffffffffffffffffffffffffffffffff168173ffffffffffffffffffffffffffffffffffffffff16036112545760006040517f1e4fbdf700000000000000000000000000000000000000000000000000000000815260040161124b9190611702565b60405180910390fd5b61125d816113da565b50565b60055481565b600081604051602001611279919061227f565b604051602081830303815290604052805190602001209050919050565b600060418251146112dc576040517f08c379a00000000000000000000000000000000000000000000000000000000081526004016112d3906122f1565b60405180910390fd5b60008060006020850151925060408501519150606085015160001a90506001868285856040516000815260200160405260405161131c949392919061233c565b6020604051602081039080840390855afa15801561133e573d6000803e3d6000fd5b50505060206040510351935050505092915050565b61135b61149e565b73ffffffffffffffffffffffffffffffffffffffff16611379610d00565b73ffffffffffffffffffffffffffffffffffffffff16146113d85761139c61149e565b6040517f118cdaa70000000000000000000000000000000000000000000000000000000081526004016113cf9190611702565b60405180910390fd5b565b60008060009054906101000a900473ffffffffffffffffffffffffffffffffffffffff169050816000806101000a81548173ffffffffffffffffffffffffffffffffffffffff021916908373ffffffffffffffffffffffffffffffffffffffff1602179055508173ffffffffffffffffffffffffffffffffffffffff168173ffffffffffffffffffffffffffffffffffffffff167f8be0079c531659141344cd1fd0a4f28419497f9722a3daafe3b4186f6b6457e060405160405180910390a35050565b600033905090565b828054828255906000526020600020908101928215611535579160200282015b8281111561153457823573ffffffffffffffffffffffffffffffffffffffff168260006101000a81548173ffffffffffffffffffffffffffffffffffffffff021916908373ffffffffffffffffffffffffffffffffffffffff160217905550916020019190600101906114c6565b5b5090506115429190611546565b5090565b5b8082111561155f576000816000905550600101611547565b5090565b600080fd5b600080fd5b600080fd5b600080fd5b600080fd5b60008083601f8401126115925761159161156d565b5b8235905067ffffffffffffffff8111156115af576115ae611572565b5b6020830191508360208202830111156115cb576115ca611577565b5b9250929050565b600073ffffffffffffffffffffffffffffffffffffffff82169050919050565b60006115fd826115d2565b9050919050565b61160d816115f2565b811461161857600080fd5b50565b60008135905061162a81611604565b92915050565b60008060006040848603121561164957611648611563565b5b600084013567ffffffffffffffff81111561166757611666611568565b5b6116738682870161157c565b935093505060206116868682870161161b565b9150509250925092565b6000819050919050565b6116a381611690565b81146116ae57600080fd5b50565b6000813590506116c08161169a565b92915050565b6000602082840312156116dc576116db611563565b5b60006116ea848285016116b1565b91505092915050565b6116fc816115f2565b82525050565b600060208201905061171760008301846116f3565b92915050565b61172681611690565b82525050565b6000602082019050611741600083018461171d565b92915050565b600081519050919050565b600082825260208201905092915050565b6000819050602082019050919050565b61177c816115f2565b82525050565b600061178e8383611773565b60208301905092915050565b6000602082019050919050565b60006117b282611747565b6117bc8185611752565b93506117c783611763565b8060005b838110156117f85781516117df8882611782565b97506117ea8361179a565b9250506001810190506117cb565b5085935050505092915050565b6000602082019050818103600083015261181f81846117a7565b905092915050565b60006020828403121561183d5761183c611563565b5b600061184b8482850161161b565b91505092915050565b60008115159050919050565b61186981611854565b82525050565b60006020820190506118846000830184611860565b92915050565b60008083601f8401126118a05761189f61156d565b5b8235905067ffffffffffffffff8111156118bd576118bc611572565b5b6020830191508360208202830111156118d9576118d8611577565b5b9250929050565b600080600080606085870312156118fa576118f9611563565b5b600085013567ffffffffffffffff81111561191857611917611568565b5b6119248782880161188a565b94509450506020611937878288016116b1565b9250506040611948878288016116b1565b91505092959194509250565b600061195f826115d2565b9050919050565b61196f81611954565b811461197a57600080fd5b50565b60008135905061198c81611966565b92915050565b600080604083850312156119a9576119a8611563565b5b60006119b78582860161197d565b92505060206119c8858286016116b1565b9150509250929050565b600082825260208201905092915050565b7f416c72656164792061726d656400000000000000000000000000000000000000600082015250565b6000611a19600d836119d2565b9150611a24826119e3565b602082019050919050565b60006020820190508181036000830152611a4881611a0c565b9050919050565b7f496e76616c69642064657374696e6174696f6e00000000000000000000000000600082015250565b6000611a856013836119d2565b9150611a9082611a4f565b602082019050919050565b60006020820190508181036000830152611ab481611a78565b9050919050565b60008160601b9050919050565b6000611ad382611abb565b9050919050565b6000611ae582611ac8565b9050919050565b611afd611af8826115f2565b611ada565b82525050565b6000819050919050565b611b1e611b1982611690565b611b03565b82525050565b6000611b308286611aec565b601482019150611b408285611b0d565b602082019150611b508284611aec565b601482019150819050949350505050565b7f4e487b7100000000000000000000000000000000000000000000000000000000600052604160045260246000fd5b7f4e487b7100000000000000000000000000000000000000000000000000000000600052603260045260246000fd5b600080fd5b600080fd5b600080fd5b60008083356001602003843603038112611beb57611bea611bbf565b5b80840192508235915067ffffffffffffffff821115611c0d57611c0c611bc4565b5b602083019250600182023603831315611c2957611c28611bc9565b5b509250929050565b7f496e76616c6964207369676e6174757265000000000000000000000000000000600082015250565b6000611c676011836119d2565b9150611c7282611c31565b602082019050919050565b60006020820190508181036000830152611c9681611c5a565b9050919050565b7f4475706c6963617465207369676e617475726500000000000000000000000000600082015250565b6000611cd36013836119d2565b9150611cde82611c9d565b602082019050919050565b60006020820190508181036000830152611d0281611cc6565b9050919050565b7f4e487b7100000000000000000000000000000000000000000000000000000000600052601160045260246000fd5b6000611d4382611690565b91507fffffffffffffffffffffffffffffffffffffffffffffffffffffffffffffffff8203611d7557611d74611d09565b5b600182019050919050565b7f496e73756666696369656e742076616c6964207369676e617475726573000000600082015250565b6000611db6601d836119d2565b9150611dc182611d80565b602082019050919050565b60006020820190508181036000830152611de581611da9565b9050919050565b6000606082019050611e01600083018661171d565b611e0e602083018561171d565b611e1b604083018461171d565b949350505050565b7f4e6f2045544820746f2077697468647261770000000000000000000000000000600082015250565b6000611e596012836119d2565b9150611e6482611e23565b602082019050919050565b60006020820190508181036000830152611e8881611e4c565b9050919050565b600081905092915050565b50565b6000611eaa600083611e8f565b9150611eb582611e9a565b600082019050919050565b6000611ecb82611e9d565b9150819050919050565b7f5769746864726177206661696c65640000000000000000000000000000000000600082015250565b6000611f0b600f836119d2565b9150611f1682611ed5565b602082019050919050565b60006020820190508181036000830152611f3a81611efe565b9050919050565b7f496e76616c6964207468726573686f6c64000000000000000000000000000000600082015250565b6000611f776011836119d2565b9150611f8282611f41565b602082019050919050565b60006020820190508181036000830152611fa681611f6a565b9050919050565b7f4e6f742061726d65640000000000000000000000000000000000000000000000600082015250565b6000611fe36009836119d2565b9150611fee82611fad565b602082019050919050565b6000602082019050818103600083015261201281611fd6565b9050919050565b600061202482611690565b915061202f83611690565b925082820190508082111561204757612046611d09565b5b92915050565b7f44656c6179206e6f742070617373656400000000000000000000000000000000600082015250565b60006120836010836119d2565b915061208e8261204d565b602082019050919050565b600060208201905081810360008301526120b281612076565b9050919050565b7f5472616e73666572206661696c65640000000000000000000000000000000000600082015250565b60006120ef600f836119d2565b91506120fa826120b9565b602082019050919050565b6000602082019050818103600083015261211e816120e2565b9050919050565b7f496e76616c696420616464726573730000000000000000000000000000000000600082015250565b600061215b600f836119d2565b915061216682612125565b602082019050919050565b6000602082019050818103600083015261218a8161214e565b9050919050565b7f496e73756666696369656e742062616c616e6365000000000000000000000000600082015250565b60006121c76014836119d2565b91506121d282612191565b602082019050919050565b600060208201905081810360008301526121f6816121ba565b9050919050565b600081905092915050565b7f19457468657265756d205369676e6564204d6573736167653a0a333200000000600082015250565b600061223e601c836121fd565b915061224982612208565b601c82019050919050565b6000819050919050565b6000819050919050565b61227961227482612254565b61225e565b82525050565b600061228a82612231565b91506122968284612268565b60208201915081905092915050565b7f496e76616c6964207369676e6174757265206c656e6774680000000000000000600082015250565b60006122db6018836119d2565b91506122e6826122a5565b602082019050919050565b6000602082019050818103600083015261230a816122ce565b9050919050565b61231a81612254565b82525050565b600060ff82169050919050565b61233681612320565b82525050565b60006080820190506123516000830187612311565b61235e602083018661232d565b61236b6040830185612311565b6123786060830184612311565b9594505050505056fea2646970667358221220523b753aff016f862657629a183f7dba47763f91dd33af890a624c544e8d99ed64736f6c634300081c0033",
  "linkReferences": {},
  "deployedLinkReferences": {}
}